:10000000A04F0020012001009D2101009F2101003F
:10001000A1210100A3210100A52101000000000091
:10002000000000000000000000000000A721010007
:10003000A921010000000000AB210100AD21010059
:10004000AF210100AF210100AF210100AF2101006C
:10005000AF210100AF210100AF210100AF2101005C
:10006000AF210100AF210100AF210100AF2101004C
:10007000AF210100AF210100AF210100AF2101003C
:10008000AF210100AF210100AF210100AF2101002C
:10009000AF210100AF210100AF210100AF2101001C
:1000A000AF210100AF210100AF210100AF2101000C
:1000B000AF210100AF21010000000000000000009E
:1000C000AF210100AF210100AF210100AF210100EC
:1000D000AF210100AF210100AF210100AF210100DC
:1000E000AF210100AF210100AF210100000000009D
:1000F00000000000AF21010000000000AF2101005E
:1001000000000000000000000000000000000000EF
:1001100000000000000000000000000000000000DF
:1001200000000000000000000000000000000000CF
:1001300000000000000000000000000000000000BF
:020000021000EC
:1020000000F0D6B805484FF00701884385460448DC
:10201000804704480449016000F008B8000004202B
:102020009922010008ED00E0000000003B493C4817
:102030000A1A09D0072291438D46CC22384800F075
:1020400066F8374880F30A88364937480A1A0CD0B0
:102050000722914381F30988022282F31488CC225B
:1020600000F055F8304880F30B8830483049314A49
:1020700000F042F830483149314A00F03DF831482B
:102080003149324A00F038F831483249324A00F0DA
:1020900033F832483249334A00F02EF83248334997
:1020A000334A00F029F833483349344A00F024F821
:1020B00033483449002200F02AF8334833490022DB
:1020C00000F025F832483349091A082902DB0022BA
:1020D000026041601F482049884205D002680430F0
:1020E00003B4904703BCF7E700208646EC46002087
:1020F0000021294A9047FEE7884207D0521A05D0AE
:10210000037801300B700131013AF9D170478842F0
:1021100002D002700130FAE770470000A04F0020A3
:10212000A02F0020A04F0020A04F00200091010010
:10213000000000207C080020B4210100B42101002F
:102140004C8C0100009101000000002000000020E4
:102150004C8C01004C8C01004C8C01004C8C01001B
:102160004C8C01004C8C01004C8C01004C8C01000B
:10217000F59001007C9901007C0800207C0800207B
:102180007C080020A00F0020A00F0020A00F00203E
:10219000A00F0020A02F0020F1230100FEE7FEE7A2
:1021A000FEE7FEE7FEE7FEE7FEE7FEE7FEE7FEE707
:0421B000FFF728BF4E
:1021B4004FF08053D3F83031082B01D00020704702
:1021C400012070474FF08053D3F83031082B01D0F1
:1021D40000207047012070474FF08053D3F830211E
:1021E400D3F83431082A01D000207047002B04D8DA
:1021F400DFE803F0010001207047002070474FF032
:102204008053D3F83021D3F83431082A01D0002088
:102214007047002B04D8DFE803F001000120704769
:10222400002070474FF08053D3F83021D3F8343175
:10223400082A01D000207047002B04D8DFE803F0FF
:10224400010001207047002070474FF08053D3F8FD
:102254003021D3F83431082A01D000207047002BF4
:1022640004D8DFE803F00100012070470020704724
:102274004FF08053D3F83031082B01D00020704741
:1022840001207047014B024A1A6070470000002089
:102294000090D00308B5FFF78BFF40B14FF08043A7
:1022A4000022C3F80C21C3F81021C3F83825FFF726
:1022B40089FF002846D04FF08052D2F80414444BD2
:1022C400C3F82015D2F80814C3F82415D2F80C1456
:1022D400C3F82815D2F81014C3F82C15D2F8141426
:1022E400C3F83015D2F81814C3F83415D2F81C14F6
:1022F400C3F84015D2F82014C3F84415D2F82414B6
:10230400C3F84815D2F82814C3F84C15D2F82C1485
:10231400C3F85015D2F83014C3F85415D2F8341455
:10232400C3F86015D2F83814C3F86415D2F83C1415
:10233400C3F86815D2F84014C3F86C15D2F84424D5
:10234400C3F87025FFF748FF18B1224B224AC3F89F
:102354008C26FFF754FF18B1204BFB22C3F8182535
:10236400FFF760FF70B14FF08041D1F8E43E23F0F5
:102374000F034FF08052D2F8582202F00F02134399
:10238400C1F8E43EFFF761FF20B1154B4FF4007232
:10239400C3F84026FFF76CFF60B14FF08043D3F8D9
:1023A400003413F0010F05D04FF080436FF00102A9
:1023B400C3F800240B4AD2F8883043F47003C2F8FF
:1023C4008830BFF34F8FBFF36F8FFFF75BFF08BDFC
:1023D40000C00040005000404881030000F000406D
:1023E4000090024000ED00E00120704708B5FFF7BF
:1023F400FBFF20B9044800F00BF8002008BD034897
:1024040000F006F8F9E700BF4C8C01005C8C010079
:102414000FB400B5074983B004AB086853F8042B24
:102424008168019300F00AF803B05DF804EB04B08E
:10243400704700BF04000020000000002DE9F04FA9
:10244400D7B0164604911C4683460A9302F0EAFE6E
:1024540003681393184603F051F8082212900021E0
:1024640026A802F057FEBBF1000F04D0DBF834308D
:10247400002B01F0D981049B5A6EB3F90C30D707B5
:1024840040F1C3859D0400F17787049943F4005318
:1024940022F400528B814A661BB21D0740F18F85DE
:1024A400049A1269002A00F08A8503F01A020A2AA3
:1024B40000F094859FED937B00239E46CDE916EEB4
:1024C4008DED0E7BCDE92B332DAB2A931C46CDF835
:1024D40050E0CDF854E0CDF814E0CDF834E03746C0
:1024E4003D468A4BD3F8CC6102F096FE26AA0346F9
:1024F400009222A92A465846B047002800F0D58306
:10250400C0F2CB83229A252A034601D01D44E8E772
:10251400B5EB0708064640F0CC8300234FF0FF32AA
:102524008DF87F309A46069301352B780392013556
:102534009946A9F120035A2B5CD8DFE813F0540222
:102544005B005B0050025B005B005B0033025B00DE
:102554005B00AB01BA015B00B60116025B0012021C
:10256400D100D100D100D100D100D100D100D100DF
:10257400D1005B005B005B005B005B005B005B0009
:10258400E9005B004601C602E900E900E9005B00DE
:102594005B005B005B000E025B005B00BF015B0045
:1025A4005B005B0076015B001D035B005B001708AA
:1025B4005B005B005B005B005B005B005B005B003F
:1025C400E9005B0046013101E900E900E900BC02D1
:1025D40031012D015B00B2025B00780265028702C3
:1025E4002D015B0076012B01E6025B005B0087088E
:1025F4005B002B01B9F1000F00F06F830023CDE9DC
:102604000B3301228DF8F4908DF87F3007930892F4
:10261400039311933DAF02922C9E10961AF08403FB
:1026240000F0F5809DF87F2002B32B984FF000084E
:10263400013001220136626007280DF17F02CDE9E5
:102644002B06226000F3F2840834B8F1000F0DD099
:102654002B98013020AA0236226007284FF002028C
:10266400CDE92B06626000F3EF840834802B00F080
:102674009583039B089AA3EB0208B8F1000F00F3BB
:10268400D2831AF4807F40F03283089B63601E4437
:102694002B9B27600133072B2C962B9300F32C8460
:1026A40008341AF0040F05D0069B029A9F1A002FD3
:1026B40000F3D884DDE9053202998A42ACBF9B1845
:1026C4005B180593002E40F0ED8300232B93079BAA
:1026D4001BB10799584604F0B9F82DAC2F46FFE614
:1026E400A9F13003002215F8019B02EB820203EBEF
:1026F4004202A9F13003092BF5D9069219E700BF6C
:10270400AFF300800000000000000000140200206D
:102714000A9B073323F00703B3EC027B8DED0E7B9A
:102724000A930F9B8DED1A7A23F000431B93DDE986
:102734001A01B24B4FF0FF3206F048FA002840F07D
:10274400BB86DDE91A01AD4B4FF0FF3206F020FAEB
:102754000646002840F0B086DDE90E010022002381
:102764002AF0800A06F00AFA002841F0FB839DF85B
:102774007F30B9F1470FCCBFA14FA24F002B41F0DE
:1027840094860322CDE90B330793089203931193A4
:10279400029241E72B78CAE62B784AF0200AC6E673
:1027A4001AF0200F40F063860A9A1AF0100F52F8BC
:1027B400046B41F0A2871AF0400F0A9201F02E81B7
:1027C40046F3C038434636B28FE10A9BB9F1430F52
:1027D40003F1040600F087871AF0100F40F0838796
:1027E4000A9B1B688DF8F4300123029308933DAFD4
:1027F4000023CDE90B330A968DF87F302C9E079386
:10280400039311931AF0840310967FF40BAF069A86
:102814000298A2EB0008B8F1000F00F30D859DF8B3
:102824007F20002A3FF425AFFFE6DDF8288058F822
:10283400047B00238DF87F30002F00F04387B9F12B
:10284400530F01F00C801AF010030B9341F0078032
:10285400039B002BC1F23C821A460B99384602F0C6
:1028640045FD9DF87F300790002801F08986079A7E
:10287400D21B089222EAE27202920BB10132029256
:102884000B9BCDF82880039311930C9307934FF07F
:102894007309C1E60A9B53F8042B0692002A80F2BE
:1028A4008085069A0A93524206922B784AF0040ACB
:1028B4003DE62B238DF87F302B7838E61AF0200F75
:1028C4004AF0100000F0F0850A9B073323F0070359
:1028D4001A46596852F8083B0A9200228DF87F2064
:1028E400039A002A18DB53EA010220F4906A15D1F6
:1028F400039A9AB910F001031A46029300F08B87E9
:1029040030238DF85731039B0892CDE90B33119393
:1029140007930DF257177FE620F4806A56AF03F051
:102924000702DB0843EA4173C908303253EA01065F
:10293400384607F8012DF2D11AF001030B9340F049
:1029440063840399119356AAD21B9142B8BF1146CE
:10295400089202910C9307935EE62B784AF0080ADA
:10296400E5E52B784AF0800AE1E5294611F8019B58
:10297400B9F12A0F01F09486A9F13003092B98BF0D
:10298400002201F27F8411F8019B02EB820203EB27
:102994004202A9F13003092BF5D942EAE273039309
:1029A4000D46C6E5584602F03DFC436815931846AB
:1029B40002F0A4FD17900646584602F033FC8268E4
:1029C4002B781692002E3FF4B2AD002A3FF4AFAD3F
:1029D4001278002A3FF4ABAD4AF4806AA7E52B785D
:1029E4004AF0010AA3E59DF87F202B78002A7FF4A2
:1029F4009EAD20228DF87F2099E500BFFFFFEF7F79
:102A0400708C01006C8C01001AF0200F40F0F684E9
:102A14000A9A1AF0100152F8043B41F07C861AF02D
:102A2400400001F00C809BB20A92504655E70A9A86
:102A34001AF0200F02F1040300F0E38412680599F0
:102A44001160C91751600A932F4649E50A9A039FFA
:102A540052F8040B002147F630038F42ADF8803062
:102A64008DF87F100346C0F2F3852AF0800646F005
:102A7400020A002840F0EE85002F01F033800A920C
:102A840030230122029711908DF857310C90079052
:102A94004FF0780908920B900DF25717844600F016
:102AA400BABD2B786C2B03BF6B784AF0200A013532
:102AB4004AF0100A3BE52B78682B03BF6B784AF485
:102AC400007A01354AF0400A31E51AF0200F4AF045
:102AD400100300F0CF840A9A073222F007029A46C4
:102AE400536852F8086B0A929846002BC0F2CE84C1
:102AF400039A002A20DB56EA08032AF0800A1BD135
:102B0400002A00F0A58730231DE01AF0200F00F002
:102B14008A8451460A9B073323F007031A46D3F8E5
:102B2400048052F8086B0A9200238DF87F30039BCF
:102B3400002B80F22A848A460A2E78F1000337D2C9
:102B440006F13003DBB2039A8DF85731012AB8BF7E
:102B5400012202929DF87F30012208920DF257174C
:102B6400002B01F0B585029B013302930023CDE9CC
:102B74000B33079311934FE51AF0200F4AF010011D
:102B8400C8D10A9B1A1D0A9B03981B684FF00008C2
:102B940040458DF87F801E46C1F2E08121F0800A15
:102BA400002B00F057840A2E78F100030A92C7D351
:102BB4000AF480630022CDE907590294DDF85890A5
:102BC40056A994461C4626E016EB0803B24843F186
:102BD4000003A0FB032020F0030202EB90029B1AE7
:102BE400F31AAD484FF0CC32B646454602FB03F229
:102BF40068F1000800FB0822A3FB0063BEF10A0F82
:102C040013444FEA560675F10005394646EAC37681
:102C14004FEA53082DD3A04D16EB080343F10003EC
:102C2400A5FB032020F0030202EB90029B1AF31A87
:102C3400A3FB053268F100005B0805FB002243EAB0
:102C4400C27303EB8303A6EB430330330CF1010C93
:102C540001F8013C4F1E002CB6D099F800306345B2
:102C6400B2D1BCF1FF0FAFD00A2E78F1000381F08E
:102C7400A58156AB0399029CCDF85890DB1B1A46EC
:102C84009142B8BF1146DDF82090079D0893CDF816
:102C940034C09DF87F30029162E70822002126A803
:102CA40002F038FA01231D441BE4B5EB070806467D
:102CB40013D0DDF8ACE02C9B0EF101024344072A4B
:102CC400C4E900782C932B9200F370810834059B9F
:102CD40043440593002E7FF420AC2C9B002B41F041
:102CE4000580049B0022B3F90C302B92EBE0B9F180
:102CF400650F40F30C81DDE90E010022002305F08D
:102D040033FF002800F0FE812B9B644A22600133CC
:102D140001360122072B2C962B93626000F39385D6
:102D24000834219B0D9A934280F22A83129B139AB2
:102D34001E44C4E900232B9B2C960133072B2B93B1
:102D440000F3B48408340D9B5F1E002F7FF7A9ACF9
:102D5400102F2B9B41F368845149DDF8109010919A
:102D640032464FF010080E4604E00834103F102F8E
:102D740040F3B78001331032072BC4E90068CDE972
:102D84002B32F2DD2AAA4946584601F029FD0028D3
:102D940040F09080DDE92B322DACE7E7069B029AE8
:102DA400A3EB0208B8F1000F7FF763AC3C4B2B9AFE
:102DB4001093B8F1100F29DD21463046384C2E46C9
:102DC4001023049D06E0A8F11008B8F1100F01F1DA
:102DD400080118DD01321030072AC1E90043CDE9AA
:102DE4002B20F0DD2AAA2946584601F0F9FC0028D8
:102DF40060D1A8F11008B8F1100FDDE92B202DA93E
:102E04004FF01003E6DC35460C4606460132109BB3
:102E140023604644072ACDE92B26C4F8048000F336
:102E24003984083425E41E4B2B9A1093B8F1100F03
:102E340024DD21461023049C06E0A8F11008B8F113
:102E4400100F01F1080118DD013215481036072A68
:102E5400C1E90003CDE92B26EFDD2AAA2146584615
:102E640001F0BEFC30BBA8F11008B8F1100FDDE989
:102E74002B262DA94FF01003E6DC0C460132109BE3
:102E840023604644072ACDE92B26C4F8048000F3C6
:102E940067820834FFF7F5BBCDCCCCCCAC8C0100F9
:102EA400B88E010004992AAA584601F099FC00281A
:102EB4003FF40BAC079B1BB10799584603F0C6FCC3
:102EC400049BB3F90C30049A526ED00702D49A05CD
:102ED40040F183845B0600F11181059857B0BDE889
:102EE400F08F16460133109A22603E44072B676028
:102EF400CDE92B367FF7D4AB04992AAA584601F0C2
:102F04006FFC0028D6D12C9E2DACFFF7CABB2B9B9F
:102F140003F101080D9B012B06F1010604F10809D8
:102F240040F3D4810123B8F1070FCDE92B86276044
:102F3400636000F31F84129B139A08F101081E4476
:102F4400B8F1070FC9E90023CDE92B8600F32084EB
:102F540009F108090D9BDDE90E015C1E0022002326
:102F640005F002FE002840F0CB8108F1010801378A
:102F74002644B8F1070FCDE92B86C9F80070C9F8CB
:102F8400044000F3B08109F10809149AC9F8042037
:102F940008F101031644072B24AACDE92B36C9F8FE
:102FA4000020A9DC09F10804FFF77BBB04992AAAD5
:102FB400584601F015FC002882D12DAC87E6049D0B
:102FC4005846294601F090FF002841F0E782B5F900
:102FD4000C3003F01A020A2A7FF46CAA0499B1F99E
:102FE4000E20002AFFF666AA4A6ED20702D49B0579
:102FF40040F19386049923463246584601F0AEFBCD
:103004000590059857B0BDE8F08F990567D59F04E2
:103014007FF53BAA95047FF540AA049B9B899E05F6
:103024006CD4049B986D02F05BF967E004991093EB
:103034002AAA584601F0D4FB00287FF43BAF2C9E0B
:10304400109B2DACFFF701BB049910932AAA584694
:1030540001F0C6FB00287FF42DAF2C9E109B2DACF5
:10306400FFF704BBBC4A2B9B1092102F22DDAA460B
:10307400DDF810904FF01008154604E0103F102FB3
:1030840004F1080415DD01331036072BC4E9005898
:10309400CDE92B36F2DD2AAA4946584601F0A0FBB9
:1030A40000287FF407AF103F102FDDE92B362DAC3D
:1030B400E9DC55460133109A3E44072BC4E9002746
:1030C400CDE92B367FF7F6AA04992AAA584601F0CF
:1030D40087FB00287FF4EEAE2C9EFFF7EBBA049D2D
:1030E400A86D02F0FBF8B5F90C306A6E98047FF510
:1030F400CCA991047FF5D1A9D7078ED54FF0FF3322
:103104000593EAE62199002940F34F810B9B0D9A20
:103114009342A8BF1346002B99460ADD1E44C4E916
:1031240000732B9B2C960133072B2B9301F35180B7
:1031340008340B9BB9F1000FA8BFA3EB0903002BC4
:10314400984600F316840B9B1AF4806F3B4440F0BE
:103154004B86219A0D998A4203DB1AF0010F00F085
:10316400CE84129913980E44C4E900012B992C962D
:10317400013107292B9101F3388008340D9907EBAD
:103184000108A8EB03088F1AB845A8BFB846B8F1E0
:10319400000F0BDD23602B9BC4F8048001334644ED
:1031A400072B2C962B9301F372800834B8F1000F8F
:1031B400A8BFA7EB0807002F7FF773AA102F2B9B3C
:1031C40041F332826549DDF81090109132464FF098
:1031D40010080E4604E00834103F102F7FF781AE2C
:1031E40001331032072BC4E90068CDE92B32F2DD3C
:1031F4002AAA4946584601F0F3FA00287FF45AAE49
:10320400DDE92B322DACE7E7302A00F0338230239E
:10321400039907F8013C023856AB1B1A99424FF048
:103224000002B8BF1946CDE90B220792089307465E
:1032340002911192FFF7F0B9DDF8ACE0464810991D
:103244001090B8F1100F724628DDCDE91C532046CA
:10325400414D049C102606E0A8F11008B8F1100FA7
:1032640000F1080017DD01321031072AC0E90056C9
:10327400CDE92B21F0DD2AAA2146584601F0B0FA07
:1032840000287FF417AEA8F11008B8F1100FDDE99B
:103294002B212DA8E7DCDDE91C530446109820609F
:1032A400501C08EB01060728CDE92B06C4F804805E
:1032B40000F39B829DF87F200834002A40F09A8016
:1032C400002B3FF4D6A91346FFF7C3B91AF0010F38
:1032D4007FF428AE0123B8F1070FCDE92B862760D0
:1032E40063607FF752AE04992AAA584601F078FA2F
:1032F40000287FF4DFADDDE92B860DF1B40944E647
:103304000D9B012B7FF741AE112B41F3F281134941
:103314001091324643461027DDF810800E4605E032
:1033240009F10809103C102C40F351830133103289
:10333400072BC9E90067CDE92B32F1DD2AAA414602
:10334400584601F04DFA00287FF4B4ADDDE92B3284
:103354000DF1B409E6E700BFC88E0100B88E010084
:1033640004992AAA584601F03BFA00287FF4A2AD3A
:103374002C9E2DACFFF785B990047FF58EA8BDE691
:103384001AF0010F3FF48DA9D0E456EA080321F0A6
:10339400800A7FF4D1AB039B002B5FD00026FFF79C
:1033A400CFBB0A932B78FFF7C2B82B9BAE4A22609F
:1033B400013301360122072B2C962B93626000F314
:1033C40046860834002940F0AD820D9A0AF00103C4
:1033D40013433FF466A9129B139A1E44C4E90023C5
:1033E4002B9B2C960133072B2B9300F3898404F138
:1033F4000802A8E298460023FFF71AB95046FFF7DF
:1034040063BA1AF0100F40F085821AF0400F40F0B2
:103414008D831AF4007F00F07D820A9A0599126860
:103424001170FFF710BB0A9A1AF0100852F8043B07
:1034340041F078811AF0400100F0DA829EB2039BD9
:103444008DF87F80002BFFF6AEAB2AF0800A002EA9
:103454007FF4A9AB039B0A92002B9FD1CDE90B33D8
:10346400089311930293079356AFFFF7D5B85346C9
:10347400FFF731BB0A9A04320A990A920E684FEA9E
:10348400E6789A464346002BBFF632AB2D238DF8DF
:103494007F30039B764268EB4808002BFFF64CAB69
:1034A4002AF0800AFFF748BB0A9B1A1D0A9B0A925E
:1034B4001B680021FFF711BADDE90E0102460B4635
:1034C40005F084FB0646002840F0D887B9F1610F67
:1034D40000F0E885B9F1410F00F02E83039B01331E
:1034E40000F0A787B9F1670F0F9B4AF4807800F0CA
:1034F4002E87B9F1470F00F02A870790DDE90E12F5
:10350400002AC0F21C879DED0E7B8DED187B0023F5
:103514001093A9F14103252B00F2A182DFE813F0F7
:103524004B079F029F029F02020450049F029F02C6
:103534009F029F029F029F029F029F029F029F027F
:103544009F029F029F029F029F029F029F029F026F
:103554009F029F029F029F029F029F029F029F025F
:103564004B079F029F029F02020450043F4E1AF031
:10357400200100F0F0800A9B073323F007031A466A
:10358400596852F8083B0A921AF0010200F0C2800E
:1035940053EA010200F04D8130228DF88020002290
:1035A4008DF87F20039A8DF88190002AC0F2FE8066
:1035B4002AF4906242F0020A03F00F020AF00200B9
:1035C400B25C8DF857211B0943EA01730A0953EAD7
:1035D40011110DF257170BD003F00F011B09715C89
:1035E40007F8011D43EA0273120953EA0201F3D1F9
:1035F400039A56AB4FF0000CDB1B9A42CDE90BCC7F
:10360400B8BF1A4608930292CDF81CC0CDF844C046
:1036140000283FF401A8029BDDE92B060233029344
:103624001AF084031096864606D10699029AA1EBF5
:103634000208B8F1000F07DCBCF1000F3FF409A841
:103644004FF00208FEF7F4BF0223F7E5084E8EE7B9
:103654004AF0020A0A92064E03F00F020220B25CFC
:103664004FF07809ADE700BFAC8C0100908C0100ED
:103674007C8C0100039956AAD21B91424FF000039F
:10368400B8BF1146CDE90B33079308920291119309
:10369400FEF7C2BF04992AAA584601F0A1F80028EF
:1036A4007FF408AC2C9E2DACFEF7E3BF04992AAA44
:1036B400584601F095F800287FF4FCAB2C9E2DAC05
:1036C400FFF741BB039BCDF82880062B3A4628BF61
:1036D4000623CDE907730397CDE90B22AC4F029380
:1036E4001192FEF799BF0822002128A801F012FDCB
:1036F4000A9B3DAF1A68394628AB584604F01AFABB
:103704000346013308905BD0089B23EAE3730293DA
:10371400FFF76EB88DF87F20039A002A48DB53EA3E
:1037240001022AF4906A7FF447AF039A002A00F05A
:10373400F780012A33788DF85731B8BF012200236E
:1037440002920122CDE90B330793089211930DF2F3
:103754005717FEF761BF0A9A52F8043B0A921AF00F
:1037640010027FF411AF1AF0400000F062819BB2A6
:10377400114609E704992AAA584601F031F80028AD
:103784007FF498ABDDE92B860DF1B409FFF7D3BBC9
:1037940004992AAA584601F023F800287FF48AAB3A
:1037A400DDE92B860DF1B409FFF7D4BB4AF0020A18
:1037B40003F00F020AF00200B25C2AF4806A00E708
:1037C4000498B0F90C30426E43F04001D707818170
:1037D4003FF594AC99053FF591AC049CA06D01F0C4
:1037E4007FFDB4F90C30FFF775BB049910932AAA36
:1037F400584600F0F5FF00287FF45CAB9DF87F206D
:103804002C9E109B002A00F0AC8098462DAC0346F9
:103814002B98FEF70DBF039B0893CDE90B3311934F
:10382400079356AFFEF7F8BE584601F053F9FEF77A
:1038340022BE039B002083428DF87F00C0F2A68342
:103844002AF4906A71E704992AAA584600F0C8FF3E
:1038540000287FF42FAB2C9E2DACFFF762BA082210
:10386400002128A8239701F055FC039B002BC0F2EC
:10387400968300260294079534461D460EE03DA922
:10388400584604F057F9431C204400F0D985A84257
:1038940009DC06F1040600F0DE850446239A9259F9
:1038A40028AB002AEBD10894079D029C089B002BAF
:1038B40000F0DA83632B40F33285591C584603F039
:1038C400BDF80746002800F0398707900822002138
:1038D40028A801F01FFC089E28AB009323AA3346B6
:1038E4003946584604F04CF9864240F02187089A3C
:1038F4000023BB5422EAE27202929DF87F20002A40
:1039040040F01285CDE90B220392CDF82880119264
:10391400FEF782BE0A9A059912681160FFF793B800
:10392400039B9BE5129B139A1E44C4E900232B9B23
:103934002C960133072B2B9300F3E28104F1080248
:103944000029C0F2BC840D99176001330E44072B83
:10395400CDE92B3651603FF7CFAA02F10804FEF7F8
:10396400A0BE002B00F0D5802B9813462DACFEF79B
:1039740070BEB8F1100F2B9B40F37586054810906C
:1039840022463146049C4FF0100906460BE000BF66
:10399400A48C0100B88E01000832A8F11008B8F117
:1039A400100F40F3CB8201331031072BC2E90069B9
:1039B400CDE92B31F0DD2AAA2146584600F010FF4C
:1039C40000287FF477AADDE92B312DAAE5E7164616
:1039D400984608F10108109BC9F800302644B8F154
:1039E400070FCDE92B86C9F804407FF7CCAA7AE407
:1039F4001AF4007840F0908003998DF87F800029B4
:103A04001E46FFF6D0A82AF0800A002B7FF4CBA82C
:103A14000B460A9200297FF4C1AC1FE51AF4007F1B
:103A240016BF46F3C0184FEAE67876B24346FFF76E
:103A34005CB81AF400711CBFDBB20146A4E51AF4A9
:103A440000711CBF0146DBB20A925046FEF745BF27
:103A54009DF87F300292089256AFFFF781B828ABE9
:103A6400019323AB00939DED180B039A21AB022124
:103A7400584601F077FE07461AF0010F40F01A8409
:103A8400289BDA1B219B0D92D91C0B93C0F2BC839B
:103A940003999942C0F243839A4200F335840B9B05
:103AA40008931AF4806F03D00B9B002B00F3088556
:103AB400089B23EAE373C24602934FF0670900238D
:103AC40011930C93109B0AF00200002B00F07C81F0
:103AD4004FF02D0C8DF87FC0029B0133029300231D
:103AE400039395E5039B0A9211930C9308930B930C
:103AF400029307934FF0780956AF9C468BE507EB8A
:103B04000108A8EB03088F1AB845A8BFB846FFF709
:103B14004DBB2DACFEF7ADBDDEB2039B8DF87F101F
:103B2400002B8846BFF691ACFFF73DB80A9A059979
:103B340012681180FEF787BF45F63003ADF8803078
:103B4400039B632B4AF0020A00F35484DDE90E124E
:103B5400002AC0F2288421A89DED0E0B01F03AFD45
:103B640000224FF07F5351EC100B04F095FD0246F8
:103B74000B46CDE908230022002304F0F5FF08B129
:103B8400012321930023954A1093029207933DAF9A
:103B9400039B0B95591ECDE90C9A0394029EDDE913
:103BA4000845B8468A4609E0002200230AF1FF3995
:103BB40004F0DAFF002840F0C284CA46884B002291
:103BC4002046294604F068FD0D46044605F014F825
:103BD400814604F0F7FC02460B462046294604F0D1
:103BE400A3FB16F80930BAF1FF3F4246044608F831
:103BF400013B0D46D8D116467A4BDDF834A000229D
:103C0400CDE90845039C0B9DCDF80C90DDF8309070
:103C140004F0D2FF48B9DDE90801724B002204F038
:103C2400A3FFE0B1039BD80719D5029B2896D97B43
:103C340018F8012C9142434609D1302003F8010CB5
:103C4400289B5A1E289213F8012C8A42F6D0392A4E
:103C54000BBF029A0132927AD2B203F8012C219A54
:103C6400A8EB07030D93B9F1610F02F1FF33219320
:103C740000F0F68450214FF04109002B8DF890108C
:103C8400C0F2E3842B22092B8DF8912000F3CC821F
:103C94000DF19202303302F8013B24ABD31A149392
:103CA4000D9B149A012B1A44089240F3BD83089B80
:103CB400129A13440893089A2AF4806343F4807A8E
:103CC40022EAE2720023CDE90B3311930292F9E662
:103CD400384601F013FC9DF87F30089020EAE0722A
:103CE4000292002B3EF4CCADFEF7C8BD04992AAA7B
:103CF400584600F075FD00283EF4F3AFFFF7E0B836
:103D040004992AAA584600F06BFD00287FF4D2A833
:103D1400DDE92B3621992DAA12E6886D01F0E0FA2F
:103D2400FFF768B9039B01330D9302210D9E28AB65
:103D3400019323AB0093324621AB9DED180B5846FB
:103D440001F010FD29F02003462B07460293064498
:103D540000F00C82DDE918010022002304F004FFC6
:103D6400002840F0AA83289BB34280F0A483452214
:103D7400029230215A1C28921970289BB342F9D31D
:103D8400DB1B0D93219B0B93029B472B00F0C081FF
:103D9400029B462B00F003820B9B8DF89090013B15
:103DA400002B2193C0F237822B22092B8DF891200E
:103DB40000F33A8230228DF892200DF1930269E7E4
:103DC400039B0D930321B1E79DF87FC0BCF1000F65
:103DD4007FF482AE109B03931AE400BF908C010021
:103DE400000030400000E03F0D9ADDF84480CDF83B
:103DF40040A0BA18039222461C460C9BDDF858904A
:103E0400DDF810A00B95002B31461197179E2EDD7F
:103E1400B8F1000F7FDD08F1FF382B98159B0130B6
:103E240031440728C2E900362C912B9068DC083213
:103E3400039B99F800001F1B8742A8BF0746002F69
:103E44000BDD2B98013039440728C2E900472C9137
:103E54002B9066DC99F800000832002FACBFC51B1C
:103E64000546002D16DC04440C9B002BD0DCB8F175
:103E7400000FD0DC2346119F0B9DDDF840A0CDF848
:103E8400589014460D9ABA1893420E4628BF13460A
:103E9400FFF75FB9102D2B98B04B23DD0894102742
:103EA4002C461D4604E0103C102C02F1080216DDDD
:103EB4000130AA4B10310728C2E90037CDE92B01A4
:103EC400F1DD2AAA5146584600F08AFC00287EF407
:103ED400F1AF103C102CDDE92B012DAAE8DC2B46B8
:103EE4002546089C1360013029440728CDE92B019D
:103EF400556000F3C98099F8000008320444B3E720
:103F04002AAA5146584600F06BFC00287EF4D2AF32
:103F14002C992DAA8CE70C9B013B09F1FF390C93DA
:103F24007BE72AAA5146584600F05AFC00287EF442
:103F3400C1AF99F800002C992DAA8EE714460E46BD
:103F44000133109A22604644072BCDE92B36C4F87E
:103F5400048000F35D820834FFF7F5B80A928A46BC
:103F6400FEF7EABD2D23B9F1470F8DF87F30079690
:103F74003346039640F39A810322794F0892CDE9A0
:103F84000B33119304230293FEF746BB33788DF869
:103F940057312AF4806A0DF25717FFF729BB28AB73
:103FA40000930023194623AA584603F0E9FD03466B
:103FB4000133089000F04482239777E4179A159907
:103FC400BF1A384601F0F4F899F801300BB109F141
:103FD4000109644A16EB080343F10003A2FB03053D
:103FE40025F0030000EB95001B1AF31A4FF0CC31B7
:103FF40068F1000803FB01F102FB0811A3FB023086
:1040040001445B0843EAC1764FEA510816EB080302
:1040140043F10003A2FB031020F0030101EB900124
:104024005B1AF31AA3FB023168F100005B0802FB80
:10403400001243EAC27303EB8303A6EB430330335A
:1040440007F8013C4FF0010C013FFEF706BE04994E
:104054002AAA584600F0C4FB00287EF42BAF21990D
:104064002C9E2DACFFF7AEB99DF87F30CDF828809B
:10407400003B18BF01230293089B0393CDE90B3344
:1040840011930793FEF7C8BA2AAA5146584600F07E
:10409400A7FB00287EF40EAF99F800002C992DAAF6
:1040A4000444E1E647F63003ADF88030039B632B0C
:1040B4004AF0020A00F39E81DDE90E12002AC0F2E2
:1040C400728121A89DED0E0B01F084FA002251ECBF
:1040D400100B4FF07F5304F0DFFA02460B46CDE994
:1040E40008230023002204F03FFD0346002800F0CB
:1040F4007A820123109621933DAF07961A4B0293BF
:1041040046E5219B0B93F31B0D93029B472B46D152
:104114000B9B033378DB039B0B9A934210DA0B9BC4
:10412400013BA9F10209002B8DF890902193BFF671
:104134003BAE0B9B2D22C3F101038DF8912039E690
:104144000D9B0B9A934200F3DF801AF0010F0B9B37
:1041540000F05082129A13440893A2E4B88E01002E
:10416400708C0100CDCCCCCC7C8C01003B78302B06
:1041740000F07781219B1E44DDE918010022002311
:1041840004F0F2FC0028BCD1289B9E423FF6F1AD1E
:10419400DB1B0D93219B0B93029B472BB8D00B99F0
:1041A400039A0AF00103002943EA020340F36282FE
:1041B400002B40F0AF810B9B08934FF066091AF473
:1041C400806F40F07F81089B23EAE373C246029329
:1041D40075E404992AAA584600F002FB00287EF4EC
:1041E40069AE2C9E2DACFEF7A4BF049903932AAAB2
:1041F400584600F0F5FA00287EF45CAE219A2C9E15
:10420400039B2DACFEF7BABF0B9BA9F10209013B3E
:104214008DF8909021930B9BC3F101032D22092B60
:104224008DF891207FF7C6AD0DF1A706DFF84CC3DA
:1042340032461046ACFB0312D20802EB8201A3EB18
:104244004101303100F8011C19466329134600F17D
:10425400FF32EEDC303302F8013C831EB34280F0BF
:1042640005820DF1910213F8011B02F8011FB342FC
:10427400F9D103F5AC736B44C43B1B1A24AA9B1AF3
:1042840014930DE500230D460393FEF752B90499E8
:104294002AAA584600F0A4FA00287EF40BAE219F07
:1042A4000D9B2C9EDF1B2DACFEF780BF0322AF4F6E
:1042B400089264E6039BFE18472302935CE7C1F16E
:1042C4000008103180F23182A94810903146102440
:1042D400064605E00832A8F11008B8F1100F53DDC6
:1042E40001331031072BC2E90064CDE92B31F1DD34
:1042F40004992AAA584600F073FA00287EF4DAAD2D
:10430400DDE92B312DAAE6E70D9B129A9A180B9B37
:104314000892002B40F307814FF067094FE7002311
:1043240007933DAFFFF7D2BA029A03930132CDE966
:104334000B330292CDF828801193FEF76DB902F188
:10434400004319932D2318911093FFF7E2B8039AB1
:10435400002A00F03181002BC0F2AD819DED0E7B6F
:104364008DED187B109628AB019323AB00939DED44
:10437400180B21AB039A0221584601F0F3F90023EC
:1043840007460793FFF778BB0E4601331099116077
:104394004644072BCDE92B36C2F8048000F348814C
:1043A4000832FFF7D0BA02F1004319932D23189174
:1043B40007963DAF109321A89DED180B01F00AF963
:1043C40000224FF07F5351EC100B04F065F90246C4
:1043D4000B46CDE908230022002304F0C5FB08B1F5
:1043E40001232193B9F1610F3FF488AE614B02932D
:1043F400FFF7CEBB039B5846591C02F01FFB074630
:1044040000283FF4DDA907904AF48078FFF776B8D6
:1044140004992AAA584600F0E3F900287EF44AAD2C
:104424002C9E2DACFEF78FBE1AF0010F3FF443AC67
:104434003DE40623079003934AF48078FFF75EB8BF
:10444400049BB3F90C300022079243F04003049A12
:104454009381FEF72FBD039B029C079D0893FFF7F2
:1044640025BADDE918010022002304F07DFB0028B1
:1044740000F0D580219B0B931E4444E60F9B13F060
:1044840000432AF0800A0B9300F0B7802D238DF8A7
:104494007F30B9F1470F4FF000030793039340F3C4
:1044A40013810322344F089269E500230322CDE9E6
:1044B4000732039363E5DB1B0D93219B0B936BE4A2
:1044C4004FF0670916990B78FF2B00F0278100261F
:1044D4000B9A304603E001300131FF2B08D09342A0
:1044E40006DAD21A4B78002BF5D10B780136F4E7B3
:1044F400CDE90B20169111960C9A119B1799134430
:10450400089A01FB0323089323EAE373C246029348
:10451400FFF7D8BA13460B449946129B4B440893B1
:104524004FF066094BE6C3F101031A4422EAE27331
:10453400C246089202934FF06709FFF7C0BA51468A
:104544000029DDE90C9A039C0B9DFFF688AB4A1CFD
:1045540042444346302003F8010B9342FBD108EB5D
:10456400010303F10108FFF77ABB00BF6C8C010063
:10457400B88E0100908C0100788C0100CDCCCCCC9D
:10458400CDF8288023B3039B08935A1C029203900E
:1045940011900C904FF07309FEF73EB8049A536ED5
:1045A400D8073EF5ABAD938999053EF5A7AD906D5F
:1045B40000F096FEFEF7A2BD002BC0F28F809DEDA9
:1045C4000E7B039B109301238DED187B0393CAE6A6
:1045D400039B08930293079B11930C9303934FF04F
:1045E4007309FEF719B8594A1093029207933DAF25
:1045F400FFF7CEBA0893FFF754BA9DF87F30B9F1AC
:10460400470FCCBF524F534F002B79D10322039352
:10461400089211930C9307930292FDF7FDBF0D9B33
:10462400C3F101032193A6E54B4A1092FEF75ABC4D
:1046340004992AAA584600F0D3F800287EF43AAC2C
:10464400DDE92B362DAAFFF77EB9C2F10103092B50
:104654004FF02D028DF891203FF7E6ADFFF718BB20
:104664007021FFF70ABB3C4A109269E402231493B9
:10467400FFF716BBC24633B9012302934FF0660914
:104684000893FFF71CBA129B03F10109039B4B44E7
:10469400089323EAE37302934FF06609FFF70FBA16
:1046A4000A9A6B780D4652F8041B0A9241EAE171AA
:1046B4000391FDF73CBFDDE90E1202F100431993AB
:1046C4002D23189110934EE60322224F089256E4AC
:1046D400CDE90B3307931193FDF79EBFDDE90E126D
:1046E40002F1004319932D2310930123189103938E
:1046F40039E6194B1093FFF76CB95346FEF7BCBE6D
:104704000023039311930C93079303230893042327
:104714000293FDF781BF5046FEF7C8BE00231193F4
:104724000C93E9E65146FEF72EBA0B4910912CE69C
:10473400049BB3F90C3043F0400388E6049B0790D4
:10474400B3F90C3043F0400381E600BF7C8C0100D8
:10475400788C0100748C0100B88E01002DE9F041C1
:1047640098468B89ADF58D6D23F00203ADF80C30BE
:104774001AAB009304934FF48063029305934B6E3A
:104784001993CB89ADF80E30CB6907934B6A099323
:1047940016460023074616A80D46069300F09AFD18
:1047A4003246434669463846FDF748FE061E6C46C7
:1047B40007DB6946384600F0BFF8002818BF4FF001
:1047C400FF36A3895B0603D5AB8943F04003AB8175
:1047D400A06D00F081FD30460DF58D6DBDE8F081D2
:1047E400936810B514461BB918460023636010BDC6
:1047F40000F09AF90023A3600023636010BD00BF9A
:10480400B1F90C202DE9F041804610070C4650D434
:10481400496842F400630029A38165DDA66A002E7D
:1048240044D0002112F48052D8F80050C8F8001087
:1048340067D1E16901234046B047411C02466ED06E
:10484400B4F90C30A66A5B0705D56368D21A236BEA
:104854000BB1E36BD21A0023E1694046B047471C11
:10486400B4F90C304FD1D8F800101D2942D8314A80
:10487400CA40D6073ED52269226023F40062A28191
:10488400D9044FF00002626003D5D8F80030002B41
:1048940043D0216BC8F8005041B104F14003994260
:1048A40002D0404601F0D2FF002323630020BDE87C
:1048B400F0810E69002EF9D00D680E6092070CBFCE
:1048C4004B690023AD1B8B600BE02B463246E1693C
:1048D400676A4046B847B0F1000CA5EB0C05664486
:1048E40006DD002DF1DCE1E7E16B002996DCDDE774
:1048F400B4F90C3043F04003A3814FF0FF30BDE81E
:10490400F081226D9FE72269226023F40062A28174
:10491400DB044FF000026260BBD52065B9E7D8F82C
:104924000030002B8CD01D2B01D0162BE0D1C8F801
:104934000050BBE70100402038B50C46054608B1DD
:10494400436B03B3B4F90C0088B1636EDB0701D485
:1049540081050FD528462146FFF752FF636EDA071B
:10496400054602D4A3899B0508D5284638BD0546CB
:10497400284638BDA06D00F0B1FCEBE7A06D00F057
:10498400AFFC284638BD00F0A5F8DBE7024A03492E
:10499400034800F03FBA00BF080200209D7B0100DD
:1049A400080000200C4B4168994210B5044601D020
:1049B40003F0F2F8A168094B994202D0204603F0B3
:1049C400EBF8E168064B994204D02046BDE810405C
:1049D40003F0E2B810BD00BF7C080020E40800200A
:1049E4004C0900202DE9F843314A324C3249DFF8B2
:1049F400DC90DFF8DC80314F116000250423294668
:104A0400082204F15C00C4E903352D4EA560C4E915
:104A14000055C4E90555656600F07CFB04F15800B7
:104A2400C4E90749C4E90987E66200F053FC294652
:104A3400244B6367082204F1C400C4E91A55C4E98D
:104A44001E552567C4F8CC50C4F8805000F062FBB2
:104A540004F1680304F1C000C4F88430C4E9229866
:104A6400C4E9247600F036FC174BC4F8DC30294640
:104A740004F596700822C4E93455C4E93855C4F8DD
:104A8400D850C4F83451C4F8E85000F043FB04F1A2
:104A9400D003C4E93D87C4F8F09004F59470C4F8D9
:104AA400FC60C4F8EC30BDE8F84300F013BC00BF70
:104AB400B40900207C08002091490100C14E010086
:104AC400E54E010009000100120002005D4E0100E4
:104AD400814E010010B504460A4800F0FFFB636BE9
:104AE40023B9094B094A1B68626323B1BDE810402E
:104AF400044800F0F5BBFFF775FFBDE8104001481E
:104B040000F0EEBBC0090020B4090020A94901004F
:104B1400014800F0E3BB00BFC0090020014800F0D9
:104B2400DFBB00BFC00900209368002B00F0AF80FA
:104B34002DE9F04FB1F90CC01CF0080F83B01746F3
:104B440080460C4626D00B6923B31CF002093E684C
:104B54002CD04FF0000ADFF8B8B25546B9465D458F
:104B64002B46524628BF5B464046002D7ED0E16965
:104B7400676AB847002840F38280D9F808301B1AC6
:104B840082442D1AC9F80830002BE8D1002003B064
:104B9400BDE8F08F2146404600F0A6F9002873D105
:104BA400B4F90CC03E681CF00209D2D11CF0010A11
:104BB4006FD1236800975546002D53D01CF4007F15
:104BC400D4F80890184600F0A980A945CB4600F215
:104BD400E3801CF4906F32D021696269A3EB010970
:104BE40002EB420202EBD27209F1010352102B4490
:104BF400934292BF93469B461A461CF4806F00F082
:104C0400EA801146404601F019FF002800F0F980BF
:104C14004A462169019000F0B9FBA289019B22F464
:104C2400906242F08002A28103EB09002361ABEBA6
:104C34000903C4F814B0A3602060A946AB465146EA
:104C44005A4600F0CFF9A2682368A2EB0902A260D9
:104C5400009A91685B44491B23609160002995D0B8
:104C6400B4F90CC0D6E900A50836A5E7D6E900A535
:104C7400083674E721464046FFF75EFE68B3B4F990
:104C84000C3043F04003A3814FF0FF307FE7002056
:104C940070474D46BA46484600964F465DB30028D5
:104CA40031D04A46D4E904132068AA4228BF2A46D0
:104CB400884204D9A16803EB010B5A457CDC93427A
:104CC4006DDCE169666A3A464046B047B0F1000BD4
:104CD400D5DDB9EB0B09CDD00120DAF80830A3EB10
:104CE4000B035F44A5EB0B05CAF80830002B3FF417
:104CF4004DAF002DD3D1009A556813460832009267
:104D0400002DF8D01F682A460A21384600F0EEFA32
:104D1400002873D00130A0EB0709C2E722699A4248
:104D240022D36269AA421FD86FF00043AB4228BF66
:104D34002B46E16993FBF2F3676A02FB03F34046F7
:104D44005246B847B0F1000999DD009A9368A3EB85
:104D54000903A5EB0905CA449360002B3FF416AF81
:104D6400B4F90CC0236827E7A94528BFA94618460B
:104D74004A46514600F036F9A2682368A2EB0902BC
:104D84004B44A2602360002ADFD121464046FFF74E
:104D9400D3FD0028D9D072E7A946AB464FE7394680
:104DA400019200F01FF9019AA3689B1AA36023687B
:104DB4001344236093468CE739465A4600F012F9AF
:104DC40023685B44236021464046FFF7B5FD002875
:104DD4003FF47FAF53E7404602F0FAFC0346002855
:104DE4007FF422AF2169404601F030FDB4F90C3064
:104DF4000C22C8F8002023F0800342E76A1C914685
:104E040050E70C22B4F90C30C8F8002039E700BF91
:104E140000FCFF7F2DE9F8430746884616464FF00D
:104E24000009D6E90154013D10D4A389012B08D906
:104E3400B4F90E3001332146384602D0C04749EA5E
:104E44000009013D6B1C04F16804EED13668002EA4
:104E5400E7D14846BDE8F88310B50C46B1F90E1009
:104E640000F00CFA002803DB236D0344236510BD16
:104E7400A38923F48053A38110BD00BF2DE9F04121
:104E84000C46B1F90C101F46CB05054616460BD44B
:104E940021F48051A1813B46B4F90E1032462846D4
:104EA400BDE8F04100F000BAB4F90E10022300226C
:104EB40000F0CEF9B4F90C10EAE700BF10B50C46C7
:104EC400B1F90E1000F0C4F9B4F90C30421C0EBF55
:104ED40023F4805343F480532065A38110BD00BFA5
:104EE400B1F90E1000F0A2B938B53D4B1B68054668
:104EF4000C4613B15A6B002A5AD0B4F90C30190776
:104F04000BD522699AB113F0010221D19B075ABF34
:104F14006369A360A260002038BDDA0658D558073B
:104F24001CD4226943F00803A381002AEBD199051C
:104F340028D5180603F0800124D4D80741D49D074E
:104F44003CD5A2600029E6D043F04003A38144E0AD
:104F5400636900225B42A260A361DCE7216B51B16B
:104F640004F14002914204D0284601F06FFCB4F9E8
:104F74000C300022226322690021C4E9002123F0BD
:104F84002403CFE72146284602F066FEB4F90C302C
:104F9400226913F001010FD0616900204942A06029
:104FA400A161002AB7D103F080010029B3D0CBE777
:104FB4001846FFF78FFDA0E7980700D46169A16048
:104FC400EFE76069A2604042A0610029A3D0BBE77B
:104FD400092243F040032A60A3814FF0FF3038BD1B
:104FE400040000208842F0B514D98B18834211D9EB
:104FF400032A00EB020166D802F1FF3C4AB16FEAD2
:105004000C0C0A469C4413F8011D02F8011D63456B
:10501400F9D1F0BD032A0FD8034602F1FF3C002A60
:10502400F7D00CF1010C013B8C4411F8012B03F86F
:10503400012F6145F9D1F0BD41EA00039B073ED140
:105044000F2A64D9A2F1100301F1100423F00F0315
:105054002031A446194400F1100E5CF8105C4EF89F
:10506400105C5CF80C5C4EF80C5C5CF8085C4EF868
:10507400085C5CF8045C4EF8045C0CF1100C8C4584
:105084000EF1100EE9D1E11812F00C0F034402F0F6
:105094000F0E03F1100338D02EF00305043D1A1F40
:1050A4005E198C465CF8044B42F8044FB242F9D1C5
:1050B4000431043329442B440EF00302ADE702F11A
:1050C400FF3C0346ADE741EA0304A4071F4602D0B0
:1050D40002F1FF3C93E7A2F1040E2EF003068E1BAF
:1050E4004FEA9E0E8C46644653F8045D4CF8045D0A
:1050F400B442F8D1CEEB8E7301EB830107EB830747
:105104003B1F043902F0030276E7724685E7034643
:105114009646C1E7830730B546D08418844604E038
:1051240003F8011B9D0704D09C46A4456346F7D1B0
:1051340030BD013A0244A2EB0C02032A29D9CCB2B5
:1051440004EB04240F2A04EB04442FD9A2F1100C1D
:105154002CF00F0C03F11005AC44C3E90044C3E97F
:10516400024410336345F8D112F00C0F02F00F0E15
:1051740018D02EF0030C9C44AEF104051A4642F8F4
:10518400044B6245FBD125F0030404330EF0030203
:105194002344002ACCD0C9B21A4403F8011B934219
:1051A400FBD130BD7246F4E70346C6E79646E0E716
:1051B40040EA01039B0710B501D1032A17D884469E
:1051C40001F1FF3E07E01EF8011F03F8011B541E06
:1051D40029B19C4622466346002AF4D110BD94446A
:1051E400002CFBD003F8011B6345FBD110BD8E4698
:1051F4008446DEF80040A4F1013323EA040313F0EB
:10520400803F71460EF1040EDAD1043A032A4CF8B9
:10521400044BEED87146D3E7014B93F81002704764
:105224001402002000487047EC03002038B5074DF5
:105234000022044608462A6002F013FF431C00D0F3
:1052440038BD2B68002BFBD0236038BDB809002083
:1052540038B50D46084C8446114628461A460023A4
:105264002360654602F0F4FE431C00D038BD236879
:10527400002BFBD02B6038BDB809002038B50D4693
:10528400084C8446114628461A4600232360654686
:1052940002F07BFE431C00D038BD2368002BFBD0FA
:1052A4002B6038BDB809002038B50D46084C84463B
:1052B400114628461A4600232360654602F05EFE26
:1052C400431C00D038BD2368002BFBD02B6038BDB5
:1052D400B8090020704700BF704700BF704700BF87
:1052E400704700BF000000000000000001F0FF0153
:1052F400102A2BDB10F0070F08D010F8013B013AFD
:105304008B422DD010F0070F42B3F6D1F0B441EA2E
:10531400012141EA014122F007047FF00007002344
:10532400F0E80256083C85EA010586EA010685FA9A
:1053340047F5A3FA87F586FA47F6A5FA87F68EB9F4
:10534400EED1F0BC01F0FF0102F0070232B110F817
:10535400013B013A83EA010313B1F8D100207047FD
:1053640001387047002D06BF35460338073815F05D
:10537400010F07D1013015F4807F02BF013015F40D
:10538400C03F0130F0BC0138704700BF844641EA99
:10539400000313F003036DD1403A41D351F8043BA9
:1053A40040F8043B51F8043B40F8043B51F8043BFB
:1053B40040F8043B51F8043B40F8043B51F8043BEB
:1053C40040F8043B51F8043B40F8043B51F8043BDB
:1053D40040F8043B51F8043B40F8043B51F8043BCB
:1053E40040F8043B51F8043B40F8043B51F8043BBB
:1053F40040F8043B51F8043B40F8043B51F8043BAB
:1054040040F8043B51F8043B40F8043B51F8043B9A
:1054140040F8043B51F8043B40F8043B403ABDD209
:10542400303211D351F8043B40F8043B51F8043BAB
:1054340040F8043B51F8043B40F8043B51F8043B6A
:1054440040F8043B103AEDD20C3205D351F8043B3A
:1054540040F8043B043AF9D2043208D0D2071CBF06
:1054640011F8013B00F8013B01D30B88038060462F
:10547400704700BF082A13D38B078DD010F00303A5
:105484008AD0C3F10403D21ADB071CBF11F8013B15
:1054940000F8013B80D331F8023B20F8023B7BE764
:1054A400043AD9D3013A11F8013B00F8013BF9D28F
:1054B4000B7803704B7843708B7883706046704729
:1054C40000000000000000000000000000000000D8
:1054D40000000000000000000000000000000000C8
:1054E40000000000000000000000000000000000B8
:1054F40000000000000000000000000030B490F83C
:1055040000F020F007016FF0000C10F0070491F890
:1055140020F040F048804FF000046FF00700D1E91C
:10552400002391F840F000F1080082FA4CF2A4FA4A
:105534008CF283FA4CF3A2FA8CF34BBBD1E902232D
:1055440082FA4CF200F10800A4FA8CF283FA4CF3CC
:10555400A2FA8CF3E3B9D1E9042382FA4CF200F104
:105564000800A4FA8CF283FA4CF3A2FA8CF37BB908
:10557400D1E9062301F1200182FA4CF200F108007E
:10558400A4FA8CF283FA4CF3A2FA8CF3002BC6D063
:10559400002A04BF04301A4612BAB2FA82F200EBAF
:1055A400D20030BC7047D1E9002304F00305C4F1F4
:1055B40000004FEAC50514F0040F91F840F00CFA0E
:1055C40005F562EA05021CBF63EA050362464FF073
:1055D4000004AAE770B555EC104B0646134825F0B5
:1055E40000430021834231601DD8204618431AD05D
:1055F4000F4828402A4658B90E4B00222046294617
:1056040003F04AF80A4621F0004304466FF03501DE
:105614001B156FF31E52A3F2FE3342F07F550B4469
:1056240045F40015336045EC104B70BDFFFFEF7F70
:105634000000F07F000050432DE9F04F03690C692E
:10564400A34283B0C0F28A80013C01F1140500F149
:10565400140855F8243058F8242001339A428E4611
:1056640081464FEA840105EB840708EB840AB2FB08
:10567400F3F63AD3CDE900150022AC464046134672
:105684005CF8041B05681FFA81FB06FB0B22090C5E
:105694004FEA124B06FB01BB92B2A9B2891A194414
:1056A4001FFA8BF3C3EB214303EB154389B241EAA1
:1056B4000341674540F8041B4FEA1B424FEA23436A
:1056C400DED2DDE9001558F8013073B9AAF1040AF5
:1056D400D04504D307E0D04504F1FF3403D25AF88F
:1056E4000439002BF7D0C9F810407146484601F040
:1056F40035FF00282EDB4146002255F8040BD1F873
:1057040000C01FFA80FE1FFA8CF3A3EB0E031344B0
:10571400020CC2EB234202EB1C429BB243EA02435B
:10572400AF4241F8043B4FEA2242E6D258F8242023
:1057340008EB84036AB9043B434504D807E0984561
:1057440004F1FF3403D253F80429002AF7D0C9F82E
:1057540010400136304603B0BDE8F08F002003B09E
:10576400BDE8F08F2DE9F04FA1B0CDE90A320291E6
:10577400816B2A9D8DED040B57EC106B044641B1EF
:10578400C26B4A60012393408B6001F06BFC0023E1
:10579400A363B7F10009B4BF012300232B60BD4B01
:1057A400BCBF29F00049CDF8149033EA090300F096
:1057B400A1809DED047B002251EC170B00238DED9D
:1057C400007B03F0D1F9824668B10A9A0123136081
:1057D4002B9B13B12B9AB04B1360B04B07930798D4
:1057E40021B0BDE8F08F9DED000B1EAA1FA9204635
:1057F40001F090FF5FEA19581E9D099040F09080D7
:105804001F9B05EB030808F23243202B40F32C8244
:10581400C3F1400309FA03F908F2124326FA03F329
:1058240049EA030002F0BEFE012208F1FF38A1F1AB
:10583400F873129219460022994B02F075FD8FA35A
:10584400D3E9002302F028FF8EA3D3E9002302F05A
:105854006DFD064640460F4602F0B4FE8BA3D3E925
:10586400002302F019FF02460B463046394602F087
:105874005DFD06460F4603F0BFF9002281460890FD
:1058840000233046394603F079F9002840F01281AC
:10589400089EA5EB0805162E05F1FF3B00F2D98002
:1058A400804B03EBC603D3E90023DDE9000103F0D9
:1058B40065F9002840F0D281002D40F382850F90D5
:1058C400B3440E960C9000230D93029B092B3BD8F6
:1058D400052BC4BF043B0293029BA3F10203CCBF7C
:1058E40000250125032B31D8DFE813F0E902E60295
:1058F400DC02C7010A9AC9F3130942F20F7359EA89
:105904000609136019D12B9B002B00F03487664BDA
:10591400079308332B9A0798136021B0BDE8F08FE2
:10592400DDE90001C1F3130343F07F53A8F2FF380C
:10593400CDF848A043F440137CE72B9B002B40F0A8
:1059440098815A4B07934AE7002302930025E563A5
:105954002946204601F060FB0790002800F0A68647
:10596400079BA3631F9B002BC0F2B280089A0E2AE8
:1059740000F3AE804B4B03EBC20393ED007BDDE9F8
:10598400008957EC176B404632463B4649468DED3D
:10599400027B02F0ABFF03F02FF9054602F012FE82
:1059A40032463B4602F078FE0B46024649464046E4
:1059B40002F0BAFC05F13003079D05F8013B4FF0F6
:1059C400FF3A00944FF001095446DDE902AB1DE0B3
:1059D40052465B463046394602F088FF03F00CF924
:1059E400804602F0EFFD52465B4602F055FE09F197
:1059F40001090B4602463946304602F095FC08F18F
:105A04003003A14505F8013B00F03885284B0022FE
:105A140002F042FE0022002306460F4603F0A4F8DB
:105A24000028D5D0089F009C0137AB460999204631
:105A340001F018FB00238BF800300A9B1F602B9B9E
:105A4400002B3FF4CCAE0798C3F800B021B0BDE8FA
:105A5400F08F01230F93BBF1000FC0F2F9800023F4
:105A64000C93089B002B80F2F0800C9A089BD21AAE
:105A74005B420D9300230C920E9326E761436F6300
:105A8400A787D23FB3C8608B288AC63FFB799F5053
:105A94001344D33F0000F07FAD8C0100AC8C0100B7
:105AA4000000F83F108F0100F88C0100048D010004
:105AB40000002440484602F085FD32463B4603F090
:105AC40053F800287FF4E4AE09F1FF330893DFE6CE
:105AD4004FF0FF3A0B95CDF858A0129A002A40F0E7
:105AE400F1811E9B0D9FC3F136030C9A01212046C0
:105AF400D5189B4401F07AFB0C9A0646002A40F024
:105B04007A830D9B002B00F0EF83002F40F0D383AA
:105B14000D9A0999204601F04DFC012309900D933B
:105B24000121204601F062FB0E9B0090002B40F007
:105B34000183029B012B40F384830120584410F01D
:105B44001F0000F0C781C0F12003042B40F39283AF
:105B54000C9BC0F11C00034405440C938344002DAA
:105B640005DD09992A46204601F084FC0990BBF121
:105B7400000F05DD00995A46204601F07BFC009099
:105B84000F9B002B40F0EC82BAF1000F40F3AD8282
:105B94000D9B002B40F0FA81089F0137DDF81C8033
:105BA400DDF824B0DDF80090012507E05946002314
:105BB4000A22204601F060FA0135834649465846D8
:105BC400FFF73AFD554500F1300008F8010BEDDB15
:105BD400079BCDF824B0BAF1000F0AF1FF3503F1A9
:105BE4000102D8BF002505EB020A81460025099968
:105BF4000122204601F03EFC0099099001F0AEFC20
:105C0400002840F37483079A02E0924500F07A83F7
:105C1400D3460AF1FF3A1BF8013C392BF5D0013386
:105C24008AF800300099204601F01CFA002E3FF457
:105C3400FDAE2DB1B54203D02946204601F012FA3B
:105C44003146204601F00EFAF0E69B440E933AE604
:105C5400C5F101030C934FF0000B02E7089B013BD5
:105C6400089300230F93F6E6C3F1200306FA03F02A
:105C7400D8E5B74B079303334CE6012314930B9BEE
:105C8400089A134403F1010A5646012E1693B8BF2D
:105C94000126172E40F35F85012204235B0003F1E4
:105CA4001400B042114602F10102F7D9E163204623
:105CB40001F0B2F90790002800F0F884BAF10E0F51
:105CC400A06300F20E81002D00F00B81089A002AD7
:105CD40040F34E839F4902F00F0301EBC303D10548
:105CE400D3E900674FEA221540F1E6839A4BDDE9D8
:105CF4000001D3E9082302F0F9FDCDE9100105F014
:105D04000F054FF0030985B1DFF84C82EA0740F133
:105D1400DD8030463946F8E8022302F0BDFC6D1000
:105D240009F1010906460F46F0D1DDE910013246BA
:105D34003B4602F0DBFDCDE910010F9B53B1DDE9D9
:105D44001067864B00223046394602F017FF0028C0
:105D540040F05E84484602F035FCDDE9102302F091
:105D64009BFC7F4B002202F0E1FA0646A1F150773A
:105D7400BAF1000F00F0D982089B1D93CDF85CA006
:105D8400744B17991C93CDE9186703EBC103DDE944
:105D9400105613ED027B314628468DED1A7B02F036
:105DA4002BFF00F130035FFA83F802F00BFC02468C
:105DB4000B462846314602F0B7FA079B0F46149962
:105DC4005D1C0646DDE91A231095002900F0A7831F
:105DD4006449002002F08AFDDDE9182302F0A4FAE8
:105DE400079B324683F800803B46CDE9140102F05C
:105DF400E3FE002840F06D84DDF85C80CDF860B0EF
:105E0400CDF85CA04FF00009DDE914AB10942BE051
:105E140009F10109C14580F2CA81534B50465946E4
:105E2400002202F039FC504B002282468B46304659
:105E3400394602F031FC0F46064602F0DDFE044608
:105E440002F0C0FB02460B463046394602F06CFABB
:105E5400303405F8014B52465B4606460F4602F0C5
:105E64008DFE002840F0348432463B463B490020F6
:105E740002F05AFA52465B4602F080FE0028C7D070
:105E84001D9E109C079A013602E0954200F0F083B3
:105E9400AB4615F8013D392BF7D00133DBB22B703B
:105EA4003746C3E5012314930B9B002B40F3B281C7
:105EB4000B9E1696B246ECE600231493DFE600230D
:105EC4001493F1E70D9F03F233430EE66D1008F1CE
:105ED40008081BE71C230C9A1A441D440C929B448B
:105EE4003DE61F9B002BC0F25781089A0E2A00F34F
:105EF4005381184B1C931C9B089A03EBC20393ED2C
:105F0400007B0B9B002B8DED027B80F2DC82BAF1CF
:105F1400000F00F3D88240F02182144B0022DDE907
:105F2400020102F0B9FB02460B46DDE9000102F072
:105F34002FFE5146002840F01282DDF81CB03123B8
:105F44000BF8013B204601F08DF8089F02376DE500
:105F5400048D0100108F0100E88E01000000F03F65
:105F640000001C400000E03F0000244000001440FA
:105F7400314600230A22204601F07EF8169B002BAE
:105F8400064640F3DE83DDF858A008950C9B002BF1
:105F940005DD31461A46204601F06CFA06460E9B92
:105FA400002B40F05482B046079D05F1FF3B0BEBFC
:105FB4000A030C93049BDDF824B003F001030D9352
:105FC40000995846FFF738FB31468246584601F09F
:105FD400C5FA009907464246204601F0E1FAC36833
:105FE4000AF130090146002B36D10B90584601F0D6
:105FF400B5FA0B990990204601F034F8099B002B5F
:1060040058D1029B1BB90D9B002B00F08383002FFA
:10601400C0F249830C9BAA469D420AF8019B00F0FA
:106024007682594600230A22204601F025F8464587
:10603400834631464FF000034FF00A02204633D026
:1060440001F01AF84146064600230A22204601F0D0
:1060540013F855468046B3E72046CDF824B001F046
:1060640001F8002F06DB049B03F00102029B1F438F
:106074003A432CD109990122204601F0FBF90099F9
:10608400099001F06BFA002840F32883B9F1390F25
:1060940000F0F1820AF13109AB46089F0BF8019B2D
:1060A400354601374646BDE500F0E6FF554606464F
:1060B400804685E7002FC0F20083029A17430D9AA9
:1060C400174300F0FA82002BA4DDCDF824B0B9F117
:1060D400390F00F0D082AB46089F09F10103354621
:1060E4000BF8013B013746469CE5029B022B7FF7E8
:1060F4004FADBAF1000F40F08C8100995346052250
:10610400204600F0B9FF01460090099801F026FAF4
:10611400002840F37E81DDF81CB0009931230BF890
:10612400013B204600F09EFF089F0237002E7FF4BB
:1061340087AD7BE41A460146204601F03BF9029BF9
:106144000090012B40F3768100230E93009A13698B
:1061540002EB8303186900F0DFFFC0F12000EDE4D7
:106164000099099801F0FAF90028BFF60DAD002353
:106174000999089D0A22204600F07EFF0D9B099094
:10618400013D002B7FF4F4AE169B002B40F3CE822E
:10619400089FDDF858A001E5149A92B90C9B002BD6
:1061A4006DD10D9B002B7BD11D461E46B8E41F9B71
:1061B400109C002BDDE917AB03DB089A0E2A7FF74E
:1061C4009AAE029A012A7FF788AC0D9B0AF1FF3739
:1061D400BB42C0F2FF80BAF1000FA3EB070780F2C5
:1061E400A282012120460C9D01F000F8A5EB0A08CB
:1061F4000646CDF83080BBF1000F7FF782AC0C9AD5
:106204005A451346A8BF5B46D21AED1A0C92ABEB63
:10621400030B76E40021E163204600F0FDFE0790C5
:10622400002800F04382079BA363002D40F0FE800A
:106234001F9B002BC0F267820122169292460B929A
:1062440053E6049B002B7FF478AC059BC3F3130344
:10625400002B7FF472AC059B23F000431B0D1B0540
:10626400002B3FF46AAC012301350BF1010B0E93B3
:10627400184663E43FF473ACC0F13C032BE6BBF176
:10628400000F00F0B1810C9A0D9E5A451346A8BF29
:106294005B46D51AABEB030B0C95002E3FF440ACD8
:1062A4000D9A0999204601F085F800230C9D099068
:1062B4000D931E4634E431463A46204601F07AF8FE
:1062C400DDF8249001464A460646204600F0BCFF0D
:1062D40049468046204600F0C5FE0D9BCDF824803B
:1062E400DB1B0D937FF414AC01230D9318E403D14D
:1062F40019F0010F7FF487ACD3461AF8013D302B17
:10630400FAD08FE4079A3123013713708AE44846A0
:1063140002F058F9DDE9102302F0BEF9B64B002271
:1063240002F004F80646A1F15077B44B0022DDE9EF
:10633400100101F0F9FF32463B468046894602F0DF
:106344003BFC002840F0A28140464946324607F112
:10635400004302F013FC00283FF4C3AD00212046A3
:1063640000F080FE0B9BDDF81CB05F42FFF75EBBC4
:1063740000F07681089BA24A5D4205F00F0302EB10
:10638400C303D3E90023DDE9000102F085F92D11EF
:10639400CDE9100100F0DB819A4E4FF00209EB07C2
:1063A4000CD5DDE91001F6E8022302F075F96D1051
:1063B400CDE9100109F10109F1D1BEE46D100836EF
:1063C400EDE7C5F101030C93089B0F909B460E93D8
:1063D400FFF779BA0D9B0E9AFB1A1A440C9B0E9286
:1063E4000121204603EB0A0500F000FF0C9B0D97EA
:1063F400D3440646002B3FF48BAB0C9A5A45134604
:10640400A8BF5B46D21AED1A0C92ABEB030BFFF755
:106414007FBB0099204600F025FE0B9BDDF81CB0E5
:106424005F42002E7FF40CACFFF700BB1695AA4622
:106434000B954BE4049B002B7FF486AEDDE904123C
:10644400C2F31303002B00F050810E917EE67168B5
:10645400204600F0E1FD0546002800F085813369FF
:1064640002339A0006F10C010C30FEF78FFF294627
:106474000122204600F0FEFF804695E5009C02467E
:106484000B4601F053FF089FDDE9022301378246E2
:106494008B463E4602F090FB48B9DDE902235046A4
:1064A400594602F061FB20B118F0010F01D0079AA0
:1064B400EEE4AB46FFF7BABA9DED007B4FF002095C
:1064C4008DED107B1FE4079B01331093DDE900562B
:1064D400DDE902232846314602F008FA02F08CFB7B
:1064E400804602F06FF8DDE9022302F0D5F8024697
:1064F4000B462846314601F017FF079A109D08F114
:106504003003BAF1010F13707FF45BAAB7E7089F59
:10651400CDF824B0354601374646FFF768BBDDE9C0
:10652400180102F0B9F8079B83F80080179B012B30
:10653400CDE9120123D0079B179ADDF8408003EBC5
:106544000209314B00223046394602F0A5F80F46C5
:10655400064602F051FB054602F034F83035024697
:106564000B463046394601F0DFFE08F8015BC845AA
:1065740006460F46E5D1109B5D1E179B1D44DDE9C1
:106584001289224B00224046494601F0CFFE324692
:106594003B4602F0F3FA002840F0958042464B4611
:1065A4001A49002001F0C0FE32463B4602F004FBCB
:1065B40080B91F9B002BFFF6F1AD089B0E2B3FF714
:1065C400EDAD1C9B089A03EBC20797ED007B8DEDA4
:1065D400027B7BE7AB46013D1BF8013C302BF9D035
:1065E4001D9F0137FFF722BA0D9E002E7FF458AE8F
:1065F4000C9DFFF795BA00BF00001C40000014403A
:10660400108F0100E88E0100000024400000E03FEC
:10661400BAF1000F3FF47BAE169D002D7FF761ACFD
:10662400089B013B304639461D930022544B02F02F
:1066340033F8024616460F4609F10100CDE910670A
:1066440001F0C0FF32463B4602F026F84D4B0022D3
:1066540001F06CFE17950646A1F15077FFF790BB49
:106664009DED007B4FF002098DED107BFFF765BBBC
:106674000136312313E4AA46089F079A3923354685
:106684000AF8013B01374646FFF7C2BADDF81CB0F1
:1066940031230BF8013B0021204600F0E3FC089F66
:1066A4000237FFF7C3B9CDF824B0F5E4364B3748C9
:1066B400002240F2AF1101F077FC002BCDF824B09A
:1066C4003FF7D8ACE8E41D9E079A0136FFF7E0BB1C
:1066D400109C1D9FAB460137FFF7A8B97FF4DCACD3
:1066E40019F0010F7FF4D2ACD6E4059B23F00043EC
:1066F4001B0D1B05002B3FF428AD012301350BF1C5
:10670400010B0E9322E5149B4BBB012316939A466F
:106714000B9343E5B9F1390FCDF824B0ABD0002F7A
:106724003FF7B8ACB8E45346FFF7DFB9029A022A40
:1067340003DC089F9A46FFF731BA0895DDF858A0A4
:10674400D7E4029A0895022AF8DC9A461EE44FF030
:106754000209FFF7F2BA0021E163FFF7A8BA149B1C
:106764000B939A46169330E5074B08482A4640F2A5
:10677400EF2101F019FC064B0793FFF730B800BF77
:106784000000244000001C40088D01001C8D010005
:10679400F88C01002DE9F84306460820894601F0EB
:1067A40003FBDFF8A4800546304600F029FCD8F846
:1067B40008305F6827F00307A7F11104A4EB09046C
:1067C4002C44B4FBF5F4013C05FB04F4A54208DCBD
:1067D4000021304601F0D0FAD8F808303B44984202
:1067E40005D0304600F012FC0020BDE8F883614279
:1067F400304601F0C1FA01300FD0114AD8F8083000
:106804003F1B47F001075F60136830461B1B136092
:1068140000F0FCFB0120BDE8F8830021304601F0C4
:10682400ABFAD8F80820831A0F2BDADD43F0010302
:106834005360044B02491B68C01A0860D1E700BFCB
:10684400C4090020680400207004002000295BD0E3
:10685400F8B50C46074600F0D3FB54F804CC744D4D
:10686400A4F108022CF00103D118A8684E688842EC
:1068740026F003060CF0010E7ED088194E604068A5
:1068840000F00100BEF1000F2FD154F8084C121B88
:106894002344946805F1080C644562D0D2F80CE0F6
:1068A400C4F80CE0CEF8084000287FD043F0010083
:1068B40050600B60B3F5007F2FD2D90868685C097B
:1068C4000131012309B2A34003436B6055F8310041
:1068D400906005EBC103083BD36045F83120C260EA
:1068E4003846BDE8F84000F091BB70B9334405F177
:1068F400080C8868604543F0010471D0C968C16020
:1069040088605460D350D5E770474CF00101B3F56B
:10691400007F44F8041CD350CFD3B3F5206F4FEA63
:10692400532045D2980900F1390109B200F1380425
:10693400C900681869580838884203D157E0896843
:10694400884204D04C6824F003049C42F7D8C868F9
:10695400C2E9021082603846CA60BDE8F84000F01F
:1069640055BB88BB1E44D1E90213CB60996046F045
:10697400010353609651B3E71E44BEF1000F07D1E3
:1069840054F8083CD21A1E44D2E90213CB60996031
:1069940046F001035360274BAA601B68B3429FD89B
:1069A400254B38461968FFF7F5FE99E73344A0E70D
:1069B40014280ED9542821D8180B00F16F0109B2FC
:1069C40000F16E04C900B4E743F0010050600B60AD
:1069D40086E700F15C0109B200F15B04C900A8E795
:1069E400C5E90422C2E902CC5460D35078E76E684A
:1069F400A4100123A34033436B60A9E7B0F5AA7F39
:106A040007D8D80B00F1780109B200F17704C90066
:106A14008FE740F25451884206D8980C00F17D016A
:106A240000F17C04C90084E74FF47E717E2480E782
:106A3400700400206C040020F40900202DE9F04FBC
:106A440001F10B05162D83B0064623D8102900F258
:106A5400B48000F0D5FA102518230220B84F3B4427
:106A6400A3F108025C68944200F064816368E26800
:106A7400A16823F00303CA602344304691605A6836
:106A840042F001025A6000F0C1FA0834204603B013
:106A9400BDE8F08F35F0070500F18F80A94200F2C0
:106AA4008C8000F0ADFAB5F5FC7FC0F0B8815FEAE8
:106AB400552E00F08980BEF1040F00F270814FEA78
:106AC400951E0EF1390003B20EF1380EDB009C4F17
:106AD4003B44A3F1080C5C68A44507D10DE0002AEF
:106AE400E16880F221818C4507D00C46636823F06D
:106AF40003035A1B0F2AF2DD7046DFF85C823C69FF
:106B0400444500F0FE80636823F0030CACEB0503FE
:106B14000F2B00F38981002BC7E9048880F273816D
:106B2400BCF5007FD7F804E080F018814FEADC035D
:106B3400013319B24FEA5C1C012303FA0CF357F832
:106B44003120A2604EEA030E07EBC103083BE36069
:106B5400C7F804E047F83140D46083104FF0010CCB
:106B64000CFA03FCF44535D81CEA0E0F08D120F0CA
:106B740003004FEA4C0C1CEA0E0F00F10400F8D09D
:106B840007EBC00AD6468146DEF80C300BE05968A4
:106B940021F003014A1B0F2A1C46DB6800F30F8116
:106BA400002A80F223819E45F1D109F1010919F0EF
:106BB400030F0EF1080EE7D161E10C2333600024CA
:106BC400204603B0BDE8F08F4FF4007340204FF02F
:106BD4003F0E7CE7BC68636823F00309A94504D32E
:106BE400A9EB05030F2B00F38F80564B1B6808207D
:106BF40003F1100804EB0903009301F0D5F8524A9D
:106C040013680133A844834605D008F1FF38804453
:106C1400434203EA08084146304601F0ADF8B0F1BA
:106C2400FF3F494A824600F01B8104EB090383427B
:106C340000F21481454B186840440BF1FF3C186086
:106C440000F072811168013100F07A8104EB0902CD
:106C5400AAEB020202441A601AF00702CDE90023EB
:106C640000F03281C2F108029244D04408EA0C01D7
:106C74005A44521A02EA0C0B5946304601F07CF889
:106C8400421C019B00F07981A0EB0A0000EB0B0889
:106C94001868C7F808A048F001025844BC42CAF872
:106CA4000420186016D0B9F10F0F40F24C816168CE
:106CB400A9F10C0222F0070201F001011143616005
:106CC4004FF0050CA1180F2AC1E901CC00F25D8137
:106CD400DAF804201E4B1968814238BF18601D4B36
:106CE4001968814238BF1860544622F00308A84549
:106CF400A8EB050301D30F2B06DC304600F086F920
:106D04005DE7D7F804E028E7621943F0010345F092
:106D1400010565603046BA60536000F077F90834C5
:106D2400204603B0BDE8F08FA2682344D16030460A
:106D34008A60A4E6DC68A3427FF498AE0230DCE605
:106D440070040020F409002068040020C409002015
:106D5400F0090020EC09002078040020BCF5206F25
:106D64004FEA5C2272D3142A00F2C18002F15C0360
:106D74001BB25B32DB00F918FB580839994203D186
:106D840098E09B68994204D05A6822F00302624555
:106D9400F7D8D968C4E902318C60DC60DDE6BEF165
:106DA400140F60D9BEF1540F00F2AB804FEA153EC8
:106DB4000EF16F0003B20EF16E0EDB0087E6D4F81D
:106DC40008C03046661945F001056560CCF80C3002
:106DD400C3F808C042F00103C7E90466C6E90288A3
:106DE4007360625000F012F90834E9E62144304639
:106DF4004A6842F001024A6054F8082FD3609A604E
:106E040000F004F9DCE6A4443046DCF8043043F036
:106E14000103CCF8043000F0F9F80834D0E6E808AF
:106E2400431C1BB2DB0019E6621943F0010145F073
:106E3400010565603046C7E90422C2E90288516051
:106E440044F80C3000F0E2F80834B9E64FEA9C123A
:106E540002F139031BB23832DB008CE7BC425CD050
:106E6400BC68626841E70EF15C0003B20EF15B0E90
:106E7400DB002CE65AF80839534540F0A68010F0A0
:106E8400030F00F1FF30F5D17B6823EA0C037B602C
:106E94004FEA4C0C9C453FF69DAEBCF1000F04D16B
:106EA40098E64FEA4C0C09F104091CEA030FF8D0E8
:106EB400484665E692104FF0010C0CFA02F24EEAD5
:106EC400020EC7F804E065E70AEB080202EA0C02C6
:106ED400ABEB020202EA0C0B5946304600F04CFFC1
:106EE400431C019B7FF4D0AEDDF800B0D0E6542AF9
:106EF4002DD84FEA1C3202F16F031BB26E32DB0055
:106F040039E7BEF5AA7F2DD84FEAD53E0EF17800B9
:106F140003B20EF1770EDB00D9E52D4B186840441F
:106F24000BF1FF3C18608DE61AEA0C0F7FF48AAE71
:106F3400D7F808A0C84448F00102CAF80420C9E6FA
:106F4400C2F800A088E60123CAF80430D5E6B2F5F9
:106F5400AA7F25D84FEADC3202F178031BB27732DC
:106F6400DB0008E740F254539E4524D8AB0C03F1F0
:106F74007D0003F17C0EC300A9E5009A083A904411
:106F8400A8EB0A084FF0000B82E6304604F1080132
:106F94000093FFF75BFC009BD7F808A0186897E6FE
:106FA40040F254539A420CD84FEA9C4202F17D03BA
:106FB400DB007C32DFE64FF47E737F204FF07E0EE1
:106FC40085E54FF47E737E22D5E67B6860E700BFDB
:106FD400C409002082B049B15AB16BB113780B6077
:106FE4001278101E18BF012002B0704701A9002AB0
:106FF400F3D1104602B070476FF00100F4E700BF10
:107004000148FEF76BB900BFBC0900200148FEF738
:1070140067B900BFBC090020436C70B505460C4637
:107024004BB153F8240080B1026843F824200023B4
:10703400C0E9033370BD2122042100F0C3FE0346DE
:1070440068640028EDD1002070BD012101FA04F626
:10705400721D9200284600F0B5FE0028F3D0C0E966
:107064000146E4E731B1436C4A6853F822000860F2
:1070740043F82210704700BF2DE9F0410D6907461F
:107084000E461C4601F1140E0020DEF800108BB2EF
:1070940002FB03434FEA134C090C02FB01CC013001
:1070A4009BB203EB0C4385424EF8043B4FEA1C446D
:1070B400EBDC3CB1B368AB4207DD06EB850301357D
:1070C4005C6135613046BDE8F08171683846013154
:1070D400FFF7A2FF8046A8B13269023206F10C0123
:1070E40092000C30FEF752F97B6C726853F8221050
:1070F400316043F82260464606EB850301355C6146
:107104003561DFE7024B03484246BA2100F04CFFE9
:10711400088D0100788D0100B0F5803F034636BF2D
:10712400030400201020B3F1807F3CBF1B02083011
:10713400B3F1805F06D3B3F1804F0FD29A0012D41B
:10714400033070471A01B2F1804F00F1040006D2F7
:107154009B0108D45B00F3D4202070471A46002A10
:10716400FBDB013070470230704700BF03685907EA
:10717400024607D0D8071DD499072AD55B081360A7
:107184000120704799B279B91B0CD9B2A1B1102072
:10719400190701D104301B09990712D0D90701D46A
:1071A40001305B0813607047D9B241B1180718D198
:1071B4000420F0E70020704718201B0AE8E70820A5
:1071C400FBE713F0040F4FEA930106D002300B469D
:1071D400E8E79B08136002207047DB0804D12020F5
:1071E4007047DB080320DDE70330DBE738B5436C89
:1071F40004460D464BB15868B0B102685A6000228B
:107204000123C0E90323456138BD2122042100F094
:10721400D9FD034660640028EDD1094B09480022DA
:1072240040F2451100F0C0FE1C220121204600F06E
:10723400C9FD0028F1D001220223C0E90123DEE7C1
:10724400088D0100788D01002DE9F04FD1F81080F0
:107254001569A84585B00E46924605DB2A46534675
:1072640045468A4690461E46DAF80830DAF8041095
:1072740005EB0804A342B8BF0131FFF7CDFE8446F5
:10728400002800F08C8000F1140707EB840E77458A
:1072940005D23B46002243F8042B9E45FBD8143606
:1072A40006EB88080AF11409464509EB850567D2FF
:1072B400A5EB0A03153B0AF1150A23F00303AA45BB
:1072C40094BF9B464FF0000BCDF808E00394AE4604
:1072D400E24605E0090C2BD1B04507F104074CD96F
:1072E40056F8041B8DB2002DF4D0CC463C46002346
:1072F40001965CF8040B216886B28AB2000C05FB87
:107304000622090C1A4405FB001101EB124192B24A
:1073140042EA0142E64544F8042B4FEA1143E8D817
:1073240007EB0B02019E536056F8041C090CD3D0E2
:107334003B68002248461D463C469446028801FBB1
:1073440002C202EB15429BB243EA024344F8043BF7
:1073540050F8043B25684FEA134CABB201FB0C33E5
:1073640003EB124386454FEA134CE7D807EB0B02B5
:10737400B045536007F10407B2D8DDE902E4D4460E
:10738400002C02DC05E0013C03D05EF8043D002B38
:10739400F9D06046CCF8104005B0BDE8F08F034B3F
:1073A400034862464FF4B17100F0FEFD088D010000
:1073B400788D010012F003032DE9F04114460746CD
:1073C40032D10E46A4102CD03D6C002D35D004F0E3
:1073D40001034FF0000864103BB92868B8B10546B2
:1073E40004F001036410002BF7D02A4631463846D6
:1073F400FFF72AFF36B17B6C716853F821203260A5
:1074040043F8216074B1064628680028E7D12A466B
:1074140029463846FFF718FF2860C0F80080054663
:10742400DEE73046BDE8F081013B0F4A52F82320E5
:107434000023FFF721FE0646C4E701213846FFF783
:10744400EBFD054640B1012340F27122C0E904324C
:10745400002338640360BAE7044B05482A4640F227
:10746400451100F0A1FD00BFD88E0100088D010078
:10747400788D01002DE9F0470C4690462769A368F2
:10748400496807EB62177D1C9D4206464FEA621964
:1074940004DD5B009D4201F10101FADC3046FFF797
:1074A400BBFD844600284ED0B9F1000F00F1140052
:1074B4000BDD09F105020CEB82020346002143F8BF
:1074C400041B9342FBD100EB8900216904F11403EE
:1074D40018F01F0803EB81012DD0C8F1200986465E
:1074E4004FF0000A1A6802FA08F242EA0A024EF859
:1074F400042B53F8042B994222FA09FAF2D80B1BF5
:10750400153B23F0030304F11502914238BF002315
:10751400043340F803A0BAF1000F00D13D46736C68
:107524006268CCF8105053F822102160604643F88A
:107534002240BDE8F087043853F8042B40F8042FA8
:107544009942F9D8EAE7034B034862464FF4EF71D6
:1075540000F02AFD088D0100788D01000B69844636
:107564000069C01A16D10CF1140C14310CEB83020F
:1075740010B401EB830301E0944508D252F8044DA2
:1075840053F8041D8C42F7D005D24FF0FF305DF85C
:10759400044B7047704701205DF8044B704700BFEF
:1075A4002DE9F04F13690E69F61A002E83B089464F
:1075B400154614D101F1140702F1140101EB830102
:1075C40007EB830301E09F427ED253F8044D51F848
:1075D400042D9442F7D080F08480012603E0FCDB84
:1075E40000260D4691466968FFF716FD01460028FE
:1075F40000F084802F69C660D9F8100005F1140BDF
:1076040005F1100201F1140A09F1140505EB8000DB
:107614000BEB870ED0460023CDF804B0944655F802
:10762400046B5CF8042F1FFA86FB94B2A4EB0B04E2
:107634001C44330CC3EB124303EB2443A4B244EACB
:107644000344A84248F8044B4FEA2343E7D82646AC
:10765400A0EB0904153CDDF804B024F0030409F19F
:107664001509484538BF00240BEB0402043204EB2F
:107674000A05964505F10404104636D9AAEB0B0A0F
:1076840000EB0A0C50F8045B13FA85F62B442D0C1E
:1076940005EB26459BB243EA05468645CCF80060D7
:1076A4004FEA2543ECD80EF1FF339B1A23F0030372
:1076B400234426B953F8042D013F002AFAD0084682
:1076C4000F6103B0BDE8F08F0021FFF7A5FC014670
:1076D40068B101220023C0E90423084603B0BDE8D1
:1076E400F08F2B464D4699467DE72B46E1E70A4647
:1076F400064B074840F2372100F056FC0A46034B7C
:10770400034840F2452100F04FFC00BF088D010002
:10771400788D01002DE9F0430E4683B0012159EC28
:10772400108B1546FFF778FC0446002844D0C9F3B3
:107734000A57C9F313030FB143F480130193B8F14B
:10774400000313D101A8FFF711FD019B636101211F
:10775400203021610FB3A7F233470744C0F135004D
:1077640037602860204603B0BDE8F0836846009384
:10777400FFF7FCFCDDE9002330B1C0F1200103FA7E
:1077840001F1C3400A430193002B0CBF01210221E4
:107794006261A3612161002FDDD104EB8103A0F2BA
:1077A400324030601869FFF7B7FCC0EB4110286025
:1077B400204603B0BDE8F083034B0448224640F260
:1077C4000F3100F0F1FB00BF088D0100788D01003E
:1077D4002DE9F84F1646002900F098800C468046A3
:1077E40006F10B05FFF70CFC54F8041C162DA4F14C
:1077F400080921F0030758D81025AE4258D8AF42E3
:1078040062DABF4B9A6809EB070C6245DCF80400A6
:1078140000F0928020F0010363445B68DB076AD4C4
:1078240020F003003B189D4249DDCB0712D454F8E5
:10783400083CA9EB030BDBF8043023F003021044EB
:1078440000EB070A554540F3F88007EB020A55455B
:1078540040F3CE8031464046FFF7F0F80646002854
:1078640000F0228154F8043C23F001034B44A0F1BE
:107874000802934200F0B6803A1F242A00F2D9800D
:10788400132A00F2A4800346224611681960516845
:10789400596092689A6021464046FEF7D7FF4046F9
:1078A400FFF7B4FB3046BDE8F88F35F00705A4D5E3
:1078B4000C23C8F8003000263046BDE8F88F1F4678
:1078C400DCE90223D3609A60D9F804307A1B0F2ACA
:1078D40003F0010309EB07001DD83B43C9F804304A
:1078E400436843F0010343604046FFF78FFB26469D
:1078F4003046BDE8F88FC907ACD454F8083CA9EB6E
:10790400030BDBF8043023F003029EE7BDE8F84FD5
:107914001146FFF793B809EB05012B4342F001022E
:10792400C9F804304A60436843F0010343600831F6
:107934004046FEF78BFFD7E720F00300C21905F19C
:10794400100C624580F29180CA0783D454F8082C45
:10795400A9EB020BDBF8042022F00302104400EB35
:10796400070AD4453FF771AF5E46DBF80C1056F8B2
:10797400080F3A1F242AC160886000F2AE80132ADF
:1079840040F2A9802168CBF808106168CBF80C108C
