:10000000F85D0020012001009D2101009F210100D9
:10001000A1210100A3210100A52101000000000091
:10002000000000000000000000000000A721010007
:10003000A921010000000000AB210100AD21010059
:10004000AF210100AF2101007133010069360100C9
:10005000AF210100AF21010095320100AF21010065
:10006000AF210100AF210100AF210100AF2101004C
:10007000AF210100AF210100AF210100AF2101003C
:10008000AF210100AF210100AF210100AF2101002C
:10009000AF210100AF210100AF210100AF2101001C
:1000A000AF210100AF210100AF210100AF2101000C
:1000B000AF210100AF21010000000000000000009E
:1000C000AF210100AF210100AF2101007D36010009
:1000D000AF210100AF210100AF210100AF210100DC
:1000E000AF210100AF210100AF210100000000009D
:1000F00000000000AF210100000000009136010067
:1001000000000000000000000000000000000000EF
:1001100000000000000000000000000000000000DF
:1001200000000000000000000000000000000000CF
:1001300000000000000000000000000000000000BF
:020000021000EC
:1020000000F0D6B805484FF00701884385460448DC
:10201000804704480449016000F008B8000004202B
:102020000929010008ED00E0000000003B493C48A0
:102030000A1A09D0072291438D46CC22384800F075
:1020400066F8374880F30A88364937480A1A0CD0B0
:102050000722914381F30988022282F31488CC225B
:1020600000F055F8304880F30B8830483049314A49
:1020700000F042F830483149314A00F03DF831482B
:102080003149324A00F038F831483249324A00F0DA
:1020900033F832483249334A00F02EF83248334997
:1020A000334A00F029F833483349344A00F024F821
:1020B00033483449002200F02AF8334833490022DB
:1020C00000F025F832483349091A082902DB0022BA
:1020D000026041601F482049884205D002680430F0
:1020E00003B4904703BCF7E700208646EC46002087
:1020F0000021294A9047FEE7884207D0521A05D0AE
:10210000037801300B700131013AF9D170478842F0
:1021100002D002700130FAE770470000F85D00203D
:10212000F83D0020F85D0020F85D0020949D02003D
:10213000000000203C0D0020B4210100B42101006A
:10214000F4850200949D02000000002000000020A1
:1021500024860200248602002486020024860200CF
:1021600024860200248602002486020024860200BF
:10217000899D0200D0AA02003C0D00203C0D0020E9
:102180003C0D0020E41D0020E41D0020E41D002083
:10219000F81D0020F83D0020A9430100FEE7FEE7FE
:1021A000FEE7FEE7FEE7FEE7FEE7FEE7FEE7FEE707
:0421B000FFF728BF4E
:1021B40010B5064B188801F059F8044608B92046B2
:1021C40010BD024B188801F02FF8F8E72800002012
:1021D40000B9704708B50121024B188800F0CAFF06
:1021E40008BD00BF2800002008B500F063FA08BD50
:1021F40030B108B5034B800143F00103984708BD93
:10220400704700BF5086020043680722C3F80025C8
:102214000020704743680020C3F8000570470000A1
:1022240048B90A4B0A4A1A600A4B2C221A800A4BF4
:102234002A221A807047054B084A1A60054B2B2244
:102244001A80054B27221A80704700BF2C000020FB
:10225400000F00202A00002028000020D00E0020BB
:1022640010B582B0284B1B689B684FF08040186102
:102274004FF000425A61002283F82C200221197089
:1022840001211973214C5C6019724FF0070C83F81B
:102294001CC04FF0250C83F81DC04FF0260C83F8AA
:1022A4001EC04FF0FF0C83F81FC04FF0030E83F8DD
:1022B40020E083F821C0586283F8282083F829207D
:1022C400134B1B68ADF804301B0C8DF806308DF8E9
:1022D400051001A9232000F0E9FE80B90021232084
:1022E40000F048FF0A4B5B68ADF800301B0C8DF81A
:1022F400023069462B2000F075FE02B010BD054A7D
:10230400AF2101F0B9FBE9E70800002000300240EA
:10231400789302005886020000B583B01B4B1B68FB
:102324009B684FF0804119614FF0A0525A6100221E
:1023340083F82C2003201870012018731448586067
:102344004FF0020C83F808C02F2018772D205877FF
:102354002E209877FF20D87783F820C083F82100B7
:10236400596283F8282083F829200A4B9B68ADF82A
:1023740004301B0C8DF8063001A92C2000F032FE2D
:10238400FFF76EFF03B05DF804FB00BF0C000020F4
:1023940000F002407893020010B50F4C206804301E
:1023A40001F086FA20680369436200231A4600F1AB
:1023B4001C0100F00BFC48B90224084B4FF47A408E
:1023C40043F001039847013CF7D110BD044AE721CB
:1023D40001F052FBF0E700BF2C00002070930200D4
:1023E4005886020010B5204C2068043001F060FAD1
:1023F40020684369436200231A4600F11C0100F07F
:10240400E5FB28BB184B19680A7F13461F2A24D9F9
:1024140002F01F03154A03F5E07340F2013042F85D
:1024240023004A7F13461F2A1AD902F01F030F4ABA
:1024340003F5E07340F2033142F8231002240C4BFD
:102444004FF47A4043F001039847013CF7D110BDA3
:10245400084AFB2101F010FBD4E74FF0A042DAE771
:102464004FF0A042E4E700BF2C000020000300501E
:1024740070930200588602002DE9F04784B00546A7
:1024840089461746984686180136C82E3FD8224CEE
:10249400206890F82C40002CF9D1112C39D011234C
:1024A40080F82C30FFF7B0FEDFF87CA02A464946BE
:1024B400504602F00BFA55443A464146284602F08B
:1024C40005FA01220CA9E81902F000FA134F388822
:1024D40000F0E8FD124B1C700F4D2868CDF800A0E9
:1024E400F6B201960F4B02930396224669460430D6
:1024F40001F03EFA2868FFF78DFE388800F0D2FD1F
:102504002B6883F82C40204604B0BDE8F0870420F3
:10251400FAE71120F8E700BF2C0000202A00002071
:10252400CC0E00203C0D0020040E00202DE9F047C5
:1025340084B005468946164698468718C82F3AD867
:102544001F4C206890F82C40002CF9D1112C34D069
:10255400112380F82C30FFF757FEDFF874A02A46C9
:102564004946504602F0B2F9324641460AEB0500AC
:1025740002F0ACF9134E308800F094FD124B1C703D
:102584000F4D2868CDF800A0FFB201970F4B0293BE
:10259400039722466946043001F0EAF92868FFF7F8
:1025A40039FE308800F07EFD2B6883F82C402046ED
:1025B40004B0BDE8F0870420FAE71120F8E700BF73
:1025C4002C0000202A000020CC0E00203C0D00200E
:1025D400040E00202DE9F04F85B0054689461646C5
:1025E40098468718C82F49D8264C206890F82C4064
:1025F400002CF9D1112C43D0112380F82C30FFF793
:1026040003FEDFF888A02A464946504602F05EF9E8
:10261400324600210AEB050002F00AF9DFF870B037
:10262400BBF8000000F03EFD174B1C70DFF854901F
:10263400D9F80000CDF800A0FFB20197DFF854A04C
:10264400CDF808A0039722466946043001F090F9BA
:1026540032460AEB0501404602F038F9D9F8000089
:10266400FFF7D8FDBBF8000000F01CFDD9F80030DE
:1026740083F82C40204605B0BDE8F08F0420FAE72B
:102684001120F8E72C000020CC0E0020040E0020BE
:102694002A0000203C0D002010B5044638B1044B3C
:1026A4004FF47A4043F001039847013CF7D110BD41
:1026B4009093020008B5FFF7EFFF08BD08B500F0DE
:1026C40041FC00B908BD024A472101F0D5F9F9E7F8
:1026D400B486020000B583B0174B1B68ADF8043014
:1026E4001B0C8DF8063001238DF80530134A01A91F
:1026F4002A2000F0DBFCA0B900212A2000F03AFDDA
:102704000F4B0322C3F82C270C4A01A9272000F001
:10271400CDFC58B90021272000F02CFD03B05DF852
:1027240004FB084A602101F0A7F9E5E7054A67219F
:1027340001F0A2F9EEE700BF98930200F927010027
:1027440000030050B486020038B50E4B0322C3F8D0
:1027540020274FF48072C3F80C2502250A4C44F05C
:1027640001044FF47A40A047013DF7D1054B002204
:10277400C3F8202702254FF47A40A047013DFAD13F
:1027840038BD00BF000300509093020038B5074CD9
:102794004FF40065C4F80855054B4FF4485043F016
:1027A40001039847C4F80C5538BD00BF000300501E
:1027B4009093020008B50DE098470BE04FF0A0435A
:1027C400D3F81035D34013F0010F0CD0064B1B681F
:1027D400002BF1D1054B1B881A461F2BEED903F0B1
:1027E4001F02034BECE708BD300F00202800002037
:1027F4000003005008B5FFF7DDFF08BDBFF34F8F9E
:102804000549CA6802F4E062044B1343CB60BFF38A
:102814004F8F00BFFDE700BF00ED00E00400FA05A4
:102824004FF08053D3F83031082B01D0002070478B
:10283400012070474FF08053D3F83031082B01D07A
:1028440000207047012070474FF08053D3F83021A7
:10285400D3F83431082A01D000207047002B04D863
:10286400DFE803F0010001207047002070474FF0BB
:102874008053D3F83021D3F83431082A01D0002012
:102884007047002B04D8DFE803F0010001207047F3
:10289400002070474FF08053D3F83021D3F83431FF
:1028A400082A01D000207047002B04D8DFE803F089
:1028B400010001207047002070474FF08053D3F887
:1028C4003021D3F83431082A01D000207047002B7E
:1028D40004D8DFE803F001000120704700207047AE
:1028E4004FF08053D3F83031082B01D000207047CB
:1028F40001207047014B024A1A60704730000020E3
:102904000090D00308B5FFF78BFF40B14FF0804330
:102914000022C3F80C21C3F81021C3F83825FFF7AF
:1029240089FF002846D04FF08052D2F804145E4B41
:10293400C3F82015D2F80814C3F82415D2F80C14DF
:10294400C3F82815D2F81014C3F82C15D2F81414AF
:10295400C3F83015D2F81814C3F83415D2F81C147F
:10296400C3F84015D2F82014C3F84415D2F824143F
:10297400C3F84815D2F82814C3F84C15D2F82C140F
:10298400C3F85015D2F83014C3F85415D2F83414DF
:10299400C3F86015D2F83814C3F86415D2F83C149F
:1029A400C3F86815D2F84014C3F86C15D2F844245F
:1029B400C3F87025FFF748FF18B13C4B3C4AC3F8F5
:1029C4008C26FFF754FF18B13A4BFB22C3F81825A5
:1029D400FFF760FF70B14FF08041D1F8E43E23F07F
:1029E4000F034FF08052D2F8582202F00F02134323
:1029F400C1F8E43EFFF761FF20B12F4B4FF40072A2
:102A0400C3F84026FFF76CFF60B14FF08043D3F862
:102A1400003413F0010F05D04FF080436FF0010232
:102A2400C3F80024254AD2F8883043F47003C2F86E
:102A34008830BFF34F8FBFF36F8F4FF01023D3F85D
:102A44000032002B08DB4FF01023D3F80432002BA4
:102A540002DBFFF74FFF08BD194B0122C3F8042521
:102A6400174BD3F80034002BFAD04FF01023122266
:102A7400C3F80022124BD3F80034002BFAD04FF0E5
:102A840010231222C3F804220D4BD3F80034002B78
:102A9400FAD00B4B0022C3F80425094BD3F80034B9
:102AA400002BFAD0FFF7AAFE00C0004000500040FF
:102AB4004881030000F000400090024000ED00E077
:102AC40000E00140002307E04FF0A04102F5E0726E
:102AD4000C2041F822000133032B08D8044AD15CAE
:102AE4000A461F29F0D901F01F020249EEE7704798
:102AF4009C93020000030050074B1B5C1A461F2BDB
:102B040007D903F01F02054901239340C1F8083592
:102B140070474FF0A041F7E7A09302000003005074
:102B240010B5002403E02046FFF7E6FF0134032C30
:102B3400F9D910BD08B5002307E04FF0A04102F514
:102B4400E072032041F822000133032B08D8064A1F
:102B5400D15C0A461F29F0D901F01F020349EEE7B0
:102B6400FFF7DEFF08BD00BFA09302000003005082
:102B740010B5044610F0010F03D114F0020F03D175
:102B840010BDFFF7D7FFF8E7FFF79CFFF8E7000059
:102B940000B587B003788DF80430436802938368E6
:102BA4008DF80C30C368049303698DF81430054B19
:102BB40053F82130044A52F8211001A8984707B06D
:102BC4005DF804FB440F0020340F002070B584B07E
:102BD4008C46144686461EF8045B1C4A42F825407F
:102BE4001B4A42F825301B4B0FCB04AE06E90F00FD
:102BF4009CF800308DF800309CF801308DF80130DD
:102C04009CF802308DF802309CF803308DF80330C4
:102C14009CF804308DF805309CF805308DF80630AA
:102C2400DCF8083002939CF80C308DF80C309CF8DA
:102C34000D308DF80D3004B1074C2B462246694601
:102C4400704600F02DFD04B070BD00BF440F00209D
:102C5400340F0020A4930200952B0100002807DB09
:102C640000F01F02400901239340024A42F8203039
:102C7400704700BF00E100E0002808DB4901C9B249
:102C840000F1604000F5614080F80013704700F0E7
:102C94000F004901C9B2014B1954704714ED00E00B
:102CA40010B40D4C00F5A27054F8203023F44F33C7
:102CB40023F4407344F8203054F82030090201F41E
:102CC4007C51120402F4403211430B4344F8203087
:102CD4005DF8044B704700BF0060004030B40E4DF7
:102CE40000F5A27055F8204024F4991424F4F85403
:102CF40045F8204055F82040090201F47C511204A3
:102D040002F4403211431B0503F4801319430C43AE
:102D140045F8204030BC7047006000401F2811D99E
:102D240000F01F00094B00F5E07053F8202022F456
:102D3400403243F8202053F8202042EA014143F86E
:102D4400201070474FF0A043EDE700BF0003005090
:102D54001F280FD900F01F00084AD2F804150123D8
:102D640003FA00F020EA0103C2F808350840C2F86B
:102D74000C0570474FF0A042EFE700BF000300507E
:102D840000B583B084468E460D4B93E8030002AB36
:102D940003E9030063460BE002A901EB830151F848
:102DA400081CD1F8200542F8040BC1F820050133B2
:102DB4000CEB0E009842EFD803B05DF804FB00BFA3
:102DC400B4930200034B034493F9540000F03F0012
:102DD400704700BF540F0020034B034493F9540081
:102DE400C0F38110704700BF540F002010B5864611
:102DF40014461AB100234FF0080C04E008234FF0E6
:102E0400090C00E00133634513D20B4A52F8232026
:102E1400B2F1FF3FF6D158B2074A02EB0E0C8CF820
:102E2400240042F8231034B9083B134483F854E0D7
:102E340001E04FF0FF3010BD540F0020064B4FF05F
:102E4400FF3243F82020072804D908380344FF221E
:102E540083F85420704700BF540F002010B5044677
:102E6400024602210020FFF78BFF0023012B04D828
:102E740054F823201AB90133F8E7002010BD0120CB
:102E8400FCE700002DE9F047064652E02B4B2344B3
:102E940093F95430B3F1FF3F44D02046FFF792FF3B
:102EA4000546C20800F0070101238B40B25C1342BF
:102EB40038D02046FFF790FF80461F2D26D905F015
:102EC4001F0ADFF87C900AF5E07359F82370C7F302
:102ED4000147022F1ED002212846FFF71FFF0123BE
:102EE40003FA0AF3C9F82035144B5A1992F924202D
:102EF40053F82230B3B1B8F1030F10D0022F0BD026
:102F0400032F0FD1B8F1020F0CD108E0AA464FF0FD
:102F1400A049D8E70321DFE7B8F1010FF0D141461A
:102F2400284698470134002CB0D03046FFF796FF6E
:102F340008B10024F7E7BDE8F08700BF540F002074
:102F44000003005010B582B0234B93F85B40002C73
:102F540040D123460EE04FF0FF3203F01F01CA4078
:102F640012F0010F04D01C4A0244FF2182F82410FD
:102F74000133DBB22F2B0ED818465A09EBD0012AA5
:102F840002D14FF6FF72E8E70022E6E72046FFF79A
:102F940055FF0134E4B2082CF8D9104C0622002164
:102FA400204601F045FC07210620FFF765FE0620B8
:102FB400FFF754FE0A4B0020C3F87C01D3F87C21B0
:102FC4000192019A4FF00042C3F804230123A37134
:102FD40002B010BD0820FBE7540F0020A90F002009
:102FE4000060004038B52C4B034493F92430B3F10E
:102FF400FF3F01D0082038BD04460D468B786BB9DD
:10300400254B0344FE2283F824206B78012B12D035
:103014001F2C1ED904F01F01204A1DE001220021AB
:10302400FFF7E4FEB0F1FF3F34D06B782A782146F5
:10303400FFF754FEE9E71F2C07D904F01F01174AD4
:1030440001238B40C2F808350AE021464FF0A04224
:10305400F6E721464FF0A04201238B40C2F80C351D
:103064001F2C13D904F01F030C4A03F5E07303214A
:1030740042F8231024FA01F104F007040848435CE1
:103084000122A240134343540020B4E723464FF0E7
:10309400A042EAE70420AEE7540F002000030050EA
:1030A400A90F002008B5FFF753FE08BD2E4B0344BB
:1030B40093F92430002B01DB0820704770B50446D7
:1030C4000D461146AA78C2F34002FFF78FFEB0F115
:1030D400FF3F47D0AB7813F0040F1DD113F0010F5D
:1030E4002AD01F2C03D904F01F03204902E02346F1
:1030F4004FF0A04103F5E07351F8232022F00202BF
:1031040041F82320E30804F0070C194EF25C012176
:1031140001FA0CF10A43F254AB7813F0020F1BD1FD
:103124000838114B034493F95420297842EA811258
:1031340083F85420002070BD6A781F2C03D904F052
:103144001F030A4902E023464FF0A041920003F511
:10315400E07341F82320D5E72A782146FFF7A0FD44
:103164000020E8E70420E6E7540F002000030050A5
:10317400A90F002030B583B00446284B034493F9CB
:103184002400072820DD0838FFF726FE014603281F
:1031940007D0012816D003212046FFF7BFFD03B056
:1031A40030BD1F2C0AD904F01F021D4BD3F8103573
:1031B400D34013F0010FEFD10221EDE722464FF087
:1031C400A043F3E70221E7E7C3B2072BE7D800F1F6
:1031D40040039BB29B009BB2124D00F5A27C55F8B4
:1031E4002C2042F0010245F82C2003F1804303F522
:1031F400C04300221A601B680193019B0029CED0B2
:10320400064B1C4494F9242053F82230002BC6D0DA
:1032140001238340C5F80433C1E700BF540F0020E5
:10322400000300500060004008B50E4B034493F9BE
:103234002430072B11DCDAB2072A0DD80A4A03F529
:10324400A27052F8201021F0010142F8201001214F
:1032540001FA03F3C2F8083308BD0021FFF75EFD4D
:10326400FAE700BF540F0020006000401F2809D96E
:1032740000F01F00054BD3F8103523FA00F000F0DE
:10328400010070474FF0A043F5E700BF0003005072
:1032940070B584B000250295039501204FF4807326
:1032A400294603E0400004339BB20131072912D8B8
:1032B40003F1804202F5C0421468012CF2D1234C80
:1032C400D4F804432042EDD0002414601268009224
:1032D400009A0543E6E71D4BD3F87C31012B06D059
:1032E40015F0FF0F2AD1002D2BDB04B070BD174B56
:1032F4000020C3F87C01D3F87C310193019B45F095
:10330400004502AA0221FFF73BFDE9E776000134FC
:10331400072CE8D82E42F9D00C4B04F5A27253F8CE
:103324002200C0F3052053F82210C1F30141084BD9
:1033340053F82430002BE9D09847E7E7012600240E
:10334400E6E702A8FFF79EFDCFE700BF006000405C
:10335400540F0020034B984201D1034870470020CA
:10336400704700BF00200040B00F002008B5024B9A
:103374001B68984708BD00BFB00F002070B50C460D
:10338400FFF7E8FF70B10546002000F0FBFB2E7943
:1033940016B92C6001232B71002000F0F7FB1EB935
:1033A400002000E0002070BD1120FCE708B5FFF705
:1033B400D1FF10B100220260027108BD002807DBB2
:1033C40000F01F02400901239340024A42F82030D2
:1033D400704700BF00E100E000280CDB00F01F0292
:1033E4004009012393402030034A42F82030BFF3C0
:1033F4004F8FBFF36F8F704700E100E0002808DBB8
:103404004901C9B200F1604000F5614080F8001341
:10341400704700F00F004901C9B2014B19547047BD
:1034240014ED00E0003A18BF0122022908D0032954
:1034340009D0012901D142F00202C0F85425704795
:1034440042F00402F9E742F00602F6E74FF0804347
:10345400D3F8002E104B1A608C46E1B1844420F45A
:10346400FF5323F01F03C0F34F30012282400B4966
:103474008B420AD800211143520003F500539C45A6
:1034840005D907488342F6D301E04FF480714FF029
:103494008043C3F8001E7047B80F0020FFFF0020D0
:1034A40000200120034B1A684FF08043C3F8002E1C
:1034B400704700BFB80F002008B50346C27FFF2A3B
:1034C4000BD0817FA9B111461F2A0FD902F01F0129
:1034D4000F4801228A40C0F80C2500225A771A723C
:1034E400184650F8082B5968904708BD4FF0A04083
:1034F400EFE711461F2A07D902F01F0104480122F1
:103504008A40C0F80825E8E74FF0A040F7E700BF7D
:103514000003005070B582B004460E461D46136881
:1035240023B103F06041B1F1005F36D1916821B15C
:1035340001F06041B1F1005F2FD15168C4F8443506
:10354400C4F848159168D368C4F83415C4F83835FC
:10355400344B9C4226D00023C4F81831D4F81831D7
:103564000193019B15F0010F21D00123C4F85035BC
:1035740015F0020F1FD00123C4F8403515F0080FD1
:1035840001D1012323613368CBB115F0040043D08A
:103594004023C4F80833002002E00023737710208E
:1035A40002B070BD51681068FFF750FFD3E70023E5
:1035B400C4F85035DCE70023C4F84035DEE7D4F81E
:1035C4001831002BFBD0174B9C4210D0F37FFF2BFC
:1035D40026D0B27F8AB11A461F2B0BD903F01F02E3
:1035E400114901239340C1F80C350020D8E7FFF7B7
:1035F40059FFEBE74FF0A041F3E71A461F2B08D918
:1036040003F01F02084901239340C1F80835002044
:10361400C6E74FF0A041F6E74023C4F80433BFE700
:103624000020BDE700F0024000030050D0F818313C
:10363400ABB130B583B004460D46094B98420BD06C
:103644000023C4F81831D4F818310193019B28469B
:10365400FFF732FF03B030BDFFF724FFF0E77047F8
:1036640000F0024008B502490248FFF7DFFF08BD39
:10367400BC0F00200030004008B502490248FFF7A3
:10368400D5FF08BDE00F00200030024008B5024914
:103694000248FFF7CBFF08BD0410002000F00240F1
:1036A4002DE9F0470D469846047904EBC4037D499F
:1036B40001EB83010B7F002B40F0EE800646914620
:1036C4000768794B53F824103846FFF757FE8246B3
:1036D400002840F0E480734B04EBC40203EB820146
:1036E40043F82290C1F804802B7B012B07D92B7857
:1036F4001A461F2B12D903F01F026C4910E02B78D5
:103704001A461F2B07D903F01F026849012393406F
:10371400C1F80C3508E04FF0A041F7E74FF0A041A5
:1037240001239340C1F808352A7813461F2A40F232
:103734008F8002F01F035D4A03F5E073012142F814
:1037440023106B78FF2B00F089801A461F2B40F260
:10375400828003F01F03554801219940C0F80C15DD
:1037640003F5E073032140F82310AB78FF2B7BD0E3
:1037740018461F2B75D903F01F034C4903F5E0735A
:103784004FF0040C41F823C095F802C004EBC401C7
:10379400444B03EB810383F820C0E978D977FF29F0
:1037A40023D02B79002B65D08C461F295FD901F0DB
:1037B4001F0C3E49012303FA0CF3C1F80C35E978D8
:1037C4000B461F2965D901F01F03384903F5E0733F
:1037D4004FF0030C41F823C095F804C004EBC40176
:1037E400304B03EB810383F81EC02B78C7F80835F0
:1037F400C7F80C25C7F81005AB68C7F824356A7BF1
:10380400297B3846FFF70EFEAB79C7F8C03507238E
:10381400C7F8003504EBC403224A52F8233053B1ED
:103824003068697940F30730FFF7E8FD306840F30A
:103834000730FFF7C3FD1B4B04EBC40203EB82020A
:1038440000215177134601221A775046BDE8F087CC
:103854004FF0A04270E74FF0A0407DE74FF0FF32F9
:1038640083E74FF0A04189E74FF0FF308CE74FF03A
:10387400A0419FE78C461F2908D901F01F0C0B4972
:10388400012303FA0CF3C1F8083598E74FF0A0417F
:10389400F6E74FF0A04199E74FF0080AD5E74FF05B
:1038A400110AD2E7BC0F0020BC93020000030050B1
:1038B40038B50546047904EBC402294B53F8223089
:1038C40023B1006840F30730FFF786FD2B6804EB53
:1038D400C402234951F82220B2B1224AC3F8082372
:1038E40004EBC4011E4A02EB8102527F62B1012241
:1038F4005A61D3F80421002AFBD004EBC401184A0E
:1039040002EB81020021517704EBC401144A02EB5B
:10391400810292F82020FF2A0AD011461F2A18D9C2
:1039240002F01F01104801F5E071022240F8212045
:103934000022C3F800250D4A93420DD02868FFF7F2
:1039440035FD04EBC404064B03EB840300221A7711
:1039540038BD4FF0A040E6E7134601225A60EDE778
:10396400BC0F0020520108000003005000F0024088
:103974002DE9F04190F804C00CEBCC03244D05EB89
:1039840083056B7F002B40D104468E4616460CEB14
:10399400CC031F4A52F8233023B116F0140F01D17F
:1039A40001226A770CEBCC03194F07EB830707F16D
:1039B4000C089EE80F0088E80F00FB7FFF2B0BD05C
:1039C400BA7FA2B11A461F2B0ED903F01F02114968
:1039D40001239340C1F808353346724629462068CE
:1039E400FFF798FDBDE8F0814FF0A041F0E71A46DB
:1039F4001F2B07D903F01F02064901239340C1F886
:103A04000C35E9E74FF0A041F7E71120EAE700BFE2
:103A1400BC0F00200003005082B001238DF8073052
:103A24009DF80730134B186059609A6044F2010303
:103A3400984213D044F20203984207D10D4BDA6046
:103A4400DA6812689A61DA685268DA6172B69DF8C7
:103A54000730002BFBD162B602B07047054B1A61E8
:103A64001A6992685A611A6912689A611A695268E5
:103A7400DA61EBE72810002000B583B002900091D2
:103A8400019244F2010071466A4600F003F803B063
:103A940000BD00002DE9F04184B004460E461546F1
:103AA40072B600F091FB00F001FA0028FBD144F259
:103AB40001039C421ED044F202039C4236D12148A9
:103AC400214BC01AC00800042B686A681F4940F0E3
:103AD400010000F05DFB1E4BD3F8F03013F0010F32
:103AE40000D000BE2A4631462046FFF795FF04B0B9
:103AF400BDE8F081134F144BFF1AFF083F0447F051
:103B04000107D5F80880404600F03AFC03466A688D
:103B1400296802960191009242460E49384600F007
:103B240042FB0D49384600F023FBD4E70548064B19
:103B3400C01AC00800043246084940F0010000F0F1
:103B44001DFBC8E714860200F485020030870200DA
:103B540000ED00E04C8702007487020088870200B1
:103B640072B6024A1368013313607047481000208C
:103B7400034A1368013B136003B962B6704700BF80
:103B84004810002008B5FFF7EBFF08BD08B5FFF7A4
:103B9400EFFF08BD034653E8000F0A4643E8002C34
:103BA4009CF0000FF7D17047034653E8002F42EA18
:103BB400010043E8000C9CF0000FF6D17047034667
:103BC40053E8000F00EA010243E8002C9CF0000FC8
:103BD400F6D17047034653E8002F02EB010043E897
:103BE400000C9CF0000FF6D17047034653E8002FF9
:103BF400A2EB010043E8000C9CF0000FF6D17047E3
:103C040008B50121FFF7D0FF08BD08B50021FFF773
:103C1400D6FF08BDC368008A00FB01307047C36843
:103C2400C91A038AB1FBF3F0C0B2704738B5044631
:103C34000020FFF7A7FF2268136861688B4215D93B
:103C4400591E116013F8011C2046FFF7E3FF0546D7
:103C5400A368226811685B1ADBB21179994200D219
:103C640013710020FFF792FF284638BD0025F8E7BE
:103C740070B504460D460020FFF784FF23681E68D4
:103C8400721C1A6029462046FFF7C9FF30700020D5
:103C9400FFF77CFF70BD037813F0040F19D003F015
:103CA4000303012B03D0022B0AD0012070470388A1
:103CB400C3F383130A68134402330B600120704773
:103CC4004388C3F389130A68134402330B60012049
:103CD400704700207047000010B584B02A4C20467D
:103CE400FFF78EFF201FFFF78BFFA4F58364A36803
:103CF4000393DBB2023304EB8304201D03A9FFF713
:103D0400CAFF90B39DF80C300233204800EB8300C7
:103D14000430F3E7039B591C0391DBB202331B49C4
:103D240001EB830359684DF822100132012AF1D9BD
:103D34009DF8003003F00303012B18D0022B20D18F
:103D4400BDF80640BDF80230C3F389130333039A68
:103D540002EB930203920E48FFF757FF10B10B4B8F
:103D6400039A9A60204604B010BD0022DEE7BDF835
:103D74000640BDF80020C2F38312039B134403934F
:103D8400E9E70024E7E700BF641400204C1000209A
:103D940060140020F8B506460C461746851C002022
:103DA400FFF7F0FE1D4B5A6822609B689B1A03F5CF
:103DB400807311E01A4C01212046FFF70BFFFFF737
:103DC4008BFF01462046FFF705FFA4F21C44A368BD
:103DD40062689B1A03F58073AB42EBD30022A7B150
:103DE400012363F3010242F0040266F389120B48D3
:103DF4004168CBB2023300EB83035A60294441602B
:103E04000020FFF7C3FE0120F8BD022363F3010283
:103E140042F0040266F39F52E9E700BF4C10002011
:103E2400681400202DE9F04706460F4690461D46CB
:103E3400DDF820904FEA104A164C00212046FFF787
:103E4400A9FE80F310006B1C03EA09034AEA004050
:103E5400A4F21C44023304EB8303586005EA090509
:103E6400023504EB85031A7966F3C5021A719A8840
:103E740068F389129A805A6867F39F225A601A7904
:103E8400012161F301021A71D2B222F004021A7103
:103E9400BDE8F08768140020034B98685B6898427B
:103EA40014BF0020012070474C1000202DE9F04180
:103EB40084B0FFF7F1FF002840F0178104468C48D6
:103EC4000023C0F81834BFF34F8F83680393DBB229
:103ED400023300EB8300043005E0DBB20233844894
:103EE40000EB8300043003A9FFF7D5FE28B3804B11
:103EF400D3F818341BBB7E4B5A68039B9A42ECD808
:103F04007B4B9A60EDE0039B591C0391DBB20233B7
:103F1400774901EB830359684DF822100132012AD5
:103F2400F1D99DF8003003F00303022B09D0012BD3
:103F34006CD06F4BD3F81044C2E00022EFE70022AC
:103F4400EDE7BDF80230C3F38916B046502E28BF02
:103F54004FF0500868F38F13ADF8023008F10801F0
:103F6400644800F09DF905460028E2D000F0C8F945
:103F7400002308226946284600F0D6F90399CB436A
:103F8400DBB201339F00B8EB830F33D91FBB5FFA59
:103F940088F700245849A04608233A46284600F0EA
:103FA400C3F907F1080324B142462146284600F02C
:103FB400BBF90336039B03EB96030393002DB8D0A0
:103FC4004B4BD3F81044D3F81834002B56D0284662
:103FD40000F09CF980E0C9B20231454C04EB810148
:103FE4000431FFB25FFA88F8A8EB07085FFA88F893
:103FF4000C34D1E7CBB202333D4901EB83010823F2
:1040040042460431284600F08FF9D2E7BDF800207B
:10401400C2F38313062B28BF062363F38912ADF87A
:10402400002002339900334800F03AF9054600288D
:104034003FF47FAF00F064F9002308226946284664
:1040440000F072F9002408260FE0039B5A1C039227
:10405400DBB20233264901EB8301334604221144C7
:10406400284600F061F904360134BDF80030C3F38A
:104074008313A342E9D8A1E7E3681C684CB1E36861
:104084005B79002BF8D023681B68294620469847A3
:10409400F2E7284600F03AF90020FFF773FD144BCD
:1040A400D3F8183413B9124B039A9A600020FFF71F
:1040B4006DFD11E023689B6820469847E3681C68FF
:1040C400002CF7D10D480E4BC01AC00800040D494E
:1040D40040F0020000F04CF8FFF7DEFE80F001042F
:1040E400E4B2204604B0BDE8F0810024F9E700BF43
:1040F4004C100020E41D00205810002014860200FB
:10410400F4850200A08702002DE9F04184B007463F
:10411400884616461D46012203A91846FFF73AFEB3
:10412400C8B1039B991C4FF0000C0BE0CAB20232D9
:104134000E4C04EB820E56F82C20CEF804200CF121
:10414400010C0131AC45F1D3FF2200922A464146CD
:104154003846FFF767FE054B1B781BB1FFF7A6FE39
:104164000028FBD104B0BDE8F08100BF4C10002052
:1041740008B500231A46FFF7C7FF08BD00B583B092
:104184000192012301AAFFF7BFFF03B05DF804FB0E
:1041940000B583B00092019302236A46FFF7B4FF8F
:1041A40003B05DF804FB00B587B001920293089B4D
:1041B4000393099B04930A9B0593052301AAFFF724
:1041C400A3FF07B05DF804FB10B5094BD3F8104406
:1041D40001221A7008E0E36801225A7123685B68BF
:1041E40020469847E3681C68002CF4D110BD00BF3A
:1041F4004C1000202DE9F84F04468A469DF828B05B
:10420400B0F80690407900FB09F00438191DB1FBA1
:10421400F9F609FB16111568EF18874200D9C51A7B
:10422400156001E02468013E002EFBD1A9EB0107D3
:10423400AF4228BF2F46B0460BE03A46194600F07D
:1042440045FB2468ED1BB8444F46A94528BF2F46BB
:10425400314665B10AEB08032144081DBBF1000F88
:10426400EBD03A460146184600F030FBE9E7BDE8DA
:10427400F88FF8B501464679701E0A46002301E01E
:10428400126801338342FBD31768002405E00D68EC
:104294003846FFF7EDFC01342946A642F7D8F8BDAD
:1042A4002DE9F8430746048A231F19440331B1FB5F
:1042B400F3F8FFF7BBFC0646F8B1002505710123AE
:1042C4004371043CC4805FFA88F808F1FF38076042
:1042D4008146454511D23846FFF7A8FC044640B153
:1042E400737901337371C9F80000076001358146A1
:1042F400EFE73046FFF7BDFF26463046BDE8F883BA
:1043040008B501210430FFF765FC08BD10B504466B
:1043140001210430FFF769FC10F0FF0F00D010BD3D
:104324002046FFF7A6FFFAE700B585B00392002206
:10433400009203AAFFF75EFF05B05DF804FB0000DE
:104344000E49A1F58C72914215D9A1EB020C4FEAEA
:10435400DC7303EBEC035B1002EBC30C52F8333059
:10436400834201D96146EEE702D20CF10802EAE782
:10437400DCF8040070470020704700BFE09402009E
:1043840008B5FFF7DDFF00B108BD0148FCE700BF39
:10439400E094020008B50146014800F035FA08BD72
:1043A400788B020008B500F09DF80320FEF7E0FBCF
:1043B400FEF784F9FDF7B0FFFEF78CF90224064BF3
:1043C4004FF47A4043F001039847013CF7D1034B83
:1043D4001B689847FEE700BF009502003C150020CB
:1043E40010B53548FFF7D6FFFDF7FCFFFEF7ACF933
:1043F4000220FEF75FF9314800F0A8F8B0F1FF3F62
:1044040016D000F0F1F82E4B984215D000F050F978
:104414000028FBD0002000F0F9F8B0F1FF3F21D0D4
:10442400284800F0FFF808B32748FFF7B3FFFEE77A
:104434002648FFF7AFFFFEE70120FDF7F1FEFDF789
:10444400D1FFFEF781F90220FEF734F900F0C4F938
:1044540010F0020F02D100F0B1F9D7E71C48FFF7C2
:1044640099FFFEE71B48FFF795FFFEE71A4800F0A7
:10447400E5F81A4C002221460A2000F0EBF800224D
:1044840011460C2000F0F4F8002000F0FFF800239F
:1044940080221946184600F02DF8802000F05AF9C1
:1044A4000F48FFF777FF4FF4FA70FEF703F96378CC
:1044B40001336370DDE700BF7C8B020024860200B9
:1044C4001403CADE40000020C48B02008C8B02005F
:1044D4009C8B0200B08B02005000002034000020AE
:1044E400D88B0200014B024A1A6070473C15002029
:1044F400E54301002DE9F843814688461D461746E9
:1045040092B9FBB100F048F906460542FAD03C46A0
:10451400B9F1000F01D0C9F80040B8F1000F01D083
:10452400C8F80060BDE8F883002600F023F90446CB
:104534000742EDD1002DF8D000F02EF906460542D1
:10454400F3D0E5E71E461C46E2E70000002844D00D
:1045540070B582B005460368002B31D0204A136041
:104564001F4E32686B681360AB6853609847002431
:104574008DF8034033681B681E6801AB04220DF1FB
:1045840003010120B0479DF807309DF806000004A0
:1045940040EA03609DF8053040EA03209DF80430AA
:1045A4001843EE6823462A7C9A4212D956F82310FF
:1045B4000A684C684240224206D00133DBB2F2E77B
:1045C400074B084A1A60CBE7054B1B68996000202B
:1045D40001E04FF0FF3002B070BD4FF0FF30704784
:1045E400401500204815002010B582B0002101912B
:1045F400054B186883681B691C6B01AB0A46A0470E
:10460400019802B010BD00BF4015002008B5014656
:10461400034B186882681269926A904708BD00BF0C
:104624004015002008B50146034B186882681269DA
:104634001268904708BD00BF4015002008B5014628
:10464400034B186882681269D269904708BD00BF9D
:104654004015002010B584461346044A1068826849
:10466400126954680A466146A04710BD40150020EF
:1046740010B584461346044A106882681269946827
:104684000A466146A04710BD4015002010B582B00F
:104694008DF80700054B186883681B691C6B0DF1C6
:1046A400070300220421A04702B010BD40150020DA
:1046B40010B582B000228DF80720064B1868836875
:1046C4001B691C6B0DF107035F21A0479DF80700D0
:1046D40002B010BD4015002010B582B000228DF844
:1046E4000420ADF80600064B186883681B691C6B30
:1046F40001AB5921A0479DF8040002B010BD00BFD2
:104704004015002010B582B0ADF804008DF80610F5
:10471400054B186883681B691C6B01AB00225A2186
:10472400A04702B010BD00BF4015002000B586466A
:104734001046002307E01EF803C08CEA000C044A6C
:1047440012F80C0001338B42F5D35DF804FB00BF73
:104754000895020010B582B00190054B1868836873
:104764001B691C6B01AB00227F21A04702B010BD66
:104774004015002010B582B000220192054B186844
:1047840083681B691C6B01AB8121A047019802B0AF
:1047940010BD00BF4015002010B582B00022019268
:1047A400054B186883681B691C6B01AB8221A04709
:1047B400019802B010BD00BF4015002010B5054B94
:1047C400186883681B691C6B00231A469A21A0474A
:1047D40010BD00BF4015002010B582B000228DF836
:1047E4000720064B186883681B691C6B0DF10703CF
:1047F4009D21A0479DF8070002B010BD4015002080
:104804000028B8BF404270470FB400B5074983B0D1
:1048140004AB086853F8042B8168019300F07AF91B
:1048240003B05DF804EB04B0704700BF58000020EB
:10483400830730B546D08418844604E003F8011B8E
:104844009D0704D09C46A4456346F7D130BD013A88
:104854000244A2EB0C02032A29D9CCB204EB0424AF
:104864000F2A04EB04442FD9A2F1100C2CF00F0CE6
:1048740003F11005AC44C3E90044C3E90244103316
:104884006345F8D112F00C0F02F00F0E18D02EF081
:10489400030C9C44AEF104051A4642F8044B6245ED
:1048A400FBD125F0030404330EF003022344002A51
:1048B400CCD0C9B21A4403F8011B9342FBD130BDDA
:1048C4007246F4E70346C6E79646E0E7844641EAC3
:1048D400000313F003036DD1403A41D351F8043B74
:1048E40040F8043B51F8043B40F8043B51F8043BC6
:1048F40040F8043B51F8043B40F8043B51F8043BB6
:1049040040F8043B51F8043B40F8043B51F8043BA5
:1049140040F8043B51F8043B40F8043B51F8043B95
:1049240040F8043B51F8043B40F8043B51F8043B85
:1049340040F8043B51F8043B40F8043B51F8043B75
:1049440040F8043B51F8043B40F8043B51F8043B65
:1049540040F8043B51F8043B40F8043B403ABDD2D4
:10496400303211D351F8043B40F8043B51F8043B76
:1049740040F8043B51F8043B40F8043B51F8043B35
:1049840040F8043B103AEDD20C3205D351F8043B05
:1049940040F8043B043AF9D2043208D0D2071CBFD1
:1049A40011F8013B00F8013B01D30B8803806046FA
:1049B400704700BF082A13D38B078DD010F0030370
:1049C4008AD0C3F10403D21ADB071CBF11F8013BE0
:1049D40000F8013B80D331F8023B20F8023B7BE72F
:1049E400043AD9D3013A11F8013B00F8013BF9D25A
:1049F4000B7803704B7843708B78837060467047F4
:104A040000000000000000000000000000000000A2
:104A14000000000000000000000000000000000092
:104A24000000000000000000000000000000000082
:104A340000000000000000000000000030B490F806
:104A440000F020F007016FF0000C10F0070491F85B
:104A540020F040F048804FF000046FF00700D1E9E7
:104A6400002391F840F000F1080082FA4CF2A4FA15
:104A74008CF283FA4CF3A2FA8CF34BBBD1E90223F8
:104A840082FA4CF200F10800A4FA8CF283FA4CF397
:104A9400A2FA8CF3E3B9D1E9042382FA4CF200F1CF
:104AA4000800A4FA8CF283FA4CF3A2FA8CF37BB9D3
:104AB400D1E9062301F1200182FA4CF200F1080049
:104AC400A4FA8CF283FA4CF3A2FA8CF3002BC6D02E
:104AD400002A04BF04301A4612BAB2FA82F200EB7A
:104AE400D20030BC7047D1E9002304F00305C4F1BF
:104AF40000004FEAC50514F0040F91F840F00CFAD9
:104B040005F562EA05021CBF63EA050362464FF03D
:104B14000004AAE72DE9F04FD7B0164604911C46CD
:104B240083460A9302F09CFE036813931846FFF72A
:104B340085FF08221290002126A8FFF779FEBBF119
:104B4400000F04D0DBF83430002B01F0D981049B32
:104B54005A6EB3F90C30D70740F1C3859D0400F1B8
:104B64007787049943F4005322F400528B814A66F8
:104B74001BB21D0740F18F85049A1269002A00F0C8
:104B84008A8503F01A020A2A00F094859FED937B2C
:104B940000239E46CDE916EE8DED0E7BCDE92B3339
:104BA4002DAB2A931C46CDF850E0CDF854E0CDF857
:104BB40014E0CDF834E037463D468A4BD3F8CC6157
:104BC40002F048FE26AA0346009222A92A46584625
:104BD400B047002800F0D583C0F2CB83229A252A5F
:104BE400034601D01D44E8E7B5EB0708064640F04C
:104BF400CC8300234FF0FF328DF87F309A46069322
:104C040001352B78039201359946A9F120035A2BDB
:104C14005CD8DFE813F054025B005B0050025B00D9
:104C24005B005B0033025B005B00AB01BA015B001D
:104C3400B60116025B001202D100D100D100D100EE
:104C4400D100D100D100D100D1005B005B005B003A
:104C54005B005B005B005B00E9005B004601C60291
:104C6400E900E900E9005B005B005B005B000E0209
:104C74005B005B00BF015B005B005B0076015B00D7
:104C84001D035B005B0017085B005B005B005B00BF
:104C94005B005B005B005B00E9005B0046013101E7
:104CA400E900E900E900BC0231012D015B00B20218
:104CB4005B007802650287022D015B0076012B01FF
:104CC400E6025B005B0087085B002B01B9F1000F73
:104CD40000F06F830023CDE90B3301228DF8F490AB
:104CE4008DF87F3007930892039311933DAF02929E
:104CF4002C9E10961AF0840300F0F5809DF87F2016
:104D040002B32B984FF00008013001220136626093
:104D140007280DF17F02CDE92B06226000F3F2840F
:104D24000834B8F1000F0DD02B98013020AA0236B8
:104D3400226007284FF00202CDE92B06626000F3DF
:104D4400EF840834802B00F09583039B089AA3EB2F
:104D54000208B8F1000F00F3D2831AF4807F40F008
:104D64003283089B63601E442B9B27600133072B0F
:104D74002C962B9300F32C8408341AF0040F05D0DE
:104D8400069B029A9F1A002F00F3D884DDE90532AE
:104D940002998A42ACBF9B185B180593002E40F021
:104DA400ED8300232B93079B1BB10799584603F00F
:104DB40049FF2DAC2F46FFE6A9F13003002215F878
:104DC400019B02EB820203EB4202A9F13003092B9F
:104DD400F5D9069219E700BFAFF300800000000088
:104DE400000000006C0200200A9B073323F0070335
:104DF400B3EC027B8DED0E7B0A930F9B8DED1A7A3B
:104E040023F000431B93DDE91A01B24B4FF0FF324C
:104E140013F0E2F9002840F0BB86DDE91A01AD4B3E
:104E24004FF0FF3213F0BAF90646002840F0B0867E
:104E3400DDE90E01002200232AF0800A13F0A4F910
:104E4400002841F0FB839DF87F30B9F1470FCCBFB8
:104E5400A14FA24F002B41F094860322CDE90B33DE
:104E64000793089203931193029241E72B78CAE6C1
:104E74002B784AF0200AC6E61AF0200F40F0638629
:104E84000A9A1AF0100F52F8046B41F0A2871AF034
:104E9400400F0A9201F02E8146F3C038434636B2E1
:104EA4008FE10A9BB9F1430F03F1040600F08787F1
:104EB4001AF0100F40F083870A9B1B688DF8F430BA
:104EC4000123029308933DAF0023CDE90B330A96E7
:104ED4008DF87F302C9E0793039311931AF084036B
:104EE40010967FF40BAF069A0298A2EB0008B8F173
:104EF400000F00F30D859DF87F20002A3FF425AFB5
:104F0400FFE6DDF8288058F8047B00238DF87F3015
:104F1400002F00F04387B9F1530F01F00C801AF011
:104F240010030B9341F00780039B002BC1F23C82DA
:104F34001A460B99384602F0F9FC9DF87F30079029
:104F4400002801F08986079AD21B089222EAE272AD
:104F540002920BB1013202920B9BCDF8288003938D
:104F640011930C9307934FF07309C1E60A9B53F80E
:104F7400042B0692002A80F28085069A0A935242F4
:104F840006922B784AF0040A3DE62B238DF87F30F5
:104F94002B7838E61AF0200F4AF0100000F0F08564
:104FA4000A9B073323F007031A46596852F8083B53
:104FB4000A9200228DF87F20039A002A18DB53EA14
:104FC400010220F4906A15D1039A9AB910F00103F2
:104FD4001A46029300F08B8730238DF85731039BD8
:104FE4000892CDE90B33119307930DF257177FE61F
:104FF40020F4806A56AF03F00702DB0843EA4173EA
:10500400C908303253EA0106384607F8012DF2D1B7
:105014001AF001030B9340F063840399119356AA89
:10502400D21B9142B8BF1146089202910C93079388
:105034005EE62B784AF0080AE5E52B784AF0800A08
:10504400E1E5294611F8019BB9F12A0F01F0948694
:10505400A9F13003092B98BF002201F27F8411F8D3
:10506400019B02EB820203EB4202A9F13003092BFC
:10507400F5D942EAE27303930D46C6E5584602F0B9
:10508400EFFB436815931846FFF7D8FC17900646C4
:10509400584602F0E5FB82682B781692002E3FF406
:1050A400B2AD002A3FF4AFAD1278002A3FF4ABADA5
:1050B4004AF4806AA7E52B784AF0010AA3E59DF833
:1050C4007F202B78002A7FF49EAD20228DF87F204C
:1050D40099E500BFFFFFEF7FEC8B0200E88B020035
:1050E4001AF0200F40F0F6840A9A1AF0100152F8D0
:1050F400043B41F07C861AF0400001F00C809BB226
:105104000A92504655E70A9A1AF0200F02F1040356
:1051140000F0E384126805991160C91751600A937D
:105124002F4649E50A9A039F52F8040B002147F6DB
:1051340030038F42ADF880308DF87F100346C0F203
:10514400F3852AF0800646F0020A002840F0EE8536
:10515400002F01F033800A9230230122029711902C
:105164008DF857310C9007904FF0780908920B9006
:105174000DF25717844600F0BABD2B786C2B03BF91
:105184006B784AF0200A01354AF0100A3BE52B7887
:10519400682B03BF6B784AF4007A01354AF0400A61
:1051A40031E51AF0200F4AF0100300F0CF840A9A78
:1051B400073222F007029A46536852F8086B0A92A3
:1051C4009846002BC0F2CE84039A002A20DB56EACC
:1051D40008032AF0800A1BD1002A00F0A587302397
:1051E4001DE01AF0200F00F08A8451460A9B073311
:1051F40023F007031A46D3F8048052F8086B0A9286
:1052040000238DF87F30039B002B80F22A848A468A
:105214000A2E78F1000337D206F13003DBB2039A89
:105224008DF85731012AB8BF012202929DF87F30D0
:10523400012208920DF25717002B01F0B585029B4D
:10524400013302930023CDE90B33079311934FE508
:105254001AF0200F4AF01001C8D10A9B1A1D0A9BAC
:1052640003981B684FF0000840458DF87F801E4668
:10527400C1F2E08121F0800A002B00F057840A2E4D
:1052840078F100030A92C7D30AF480630022CDE9BF
:1052940007590294DDF8589056A994461C4626E016
:1052A40016EB0803B24843F10003A0FB032020F0EF
:1052B400030202EB90029B1AF31AAD484FF0CC3272
:1052C400B646454602FB03F268F1000800FB0822DB
:1052D400A3FB0063BEF10A0F13444FEA560675F1AF
:1052E4000005394646EAC3764FEA53082DD3A04D4C
:1052F40016EB080343F10003A5FB032020F003028F
:1053040002EB90029B1AF31AA3FB053268F100002A
:105314005B0805FB002243EAC27303EB8303A6EB9D
:10532400430330330CF1010C01F8013C4F1E002CF7
:10533400B6D099F800306345B2D1BCF1FF0FAFD0BD
:105344000A2E78F1000381F0A58156AB0399029CE3
:10535400CDF85890DB1B1A469142B8BF1146DDF8D0
:105364002090079D0893CDF834C09DF87F300291BA
:1053740062E70822002126A8FFF75AFA01231D44F8
:105384001BE4B5EB0708064613D0DDF8ACE02C9B14
:105394000EF101024344072AC4E900782C932B92AE
:1053A40000F370810834059B43440593002E7FF479
:1053B40020AC2C9B002B41F00580049B0022B3F908
:1053C4000C302B92EBE0B9F1650F40F30C81DDE971
:1053D4000E010022002312F0CDFE002800F0FE8111
:1053E4002B9B644A2260013301360122072B2C9641
:1053F4002B93626000F393850834219B0D9A9342AA
:1054040080F22A83129B139A1E44C4E900232B9B27
:105414002C960133072B2B9300F3B48408340D9B93
:105424005F1E002F7FF7A9AC102F2B9B41F36884DC
:105434005149DDF81090109132464FF010080E4695
:1054440004E00834103F102F40F3B78001331032CA
:10545400072BC4E90068CDE92B32F2DD2AAA4946BC
:10546400584601F029FD002840F09080DDE92B32F8
:105474002DACE7E7069B029AA3EB0208B8F1000FF4
:105484007FF763AC3C4B2B9A1093B8F1100F29DDD6
:1054940021463046384C2E461023049D06E0A8F1E0
:1054A4001008B8F1100F01F1080118DD01321030B5
:1054B400072AC1E90043CDE92B20F0DD2AAA2946B9
:1054C400584601F0F9FC002860D1A8F11008B8F1A1
:1054D400100FDDE92B202DA94FF01003E6DC354633
:1054E4000C4606460132109B23604644072ACDE948
:1054F4002B26C4F8048000F33984083425E41E4BB9
:105504002B9A1093B8F1100F24DD21461023049C2C
:1055140006E0A8F11008B8F1100F01F1080118DD38
:10552400013215481036072AC1E90003CDE92B26BC
:10553400EFDD2AAA2146584601F0BEFC30BBA8F193
:105544001008B8F1100FDDE92B262DA94FF0100338
:10555400E6DC0C460132109B23604644072ACDE961
:105564002B26C4F8048000F367820834FFF7F5BBE8
:10557400CDCCCCCCF88F02000896020004992AAA5C
:10558400584601F099FC00283FF40BAC079B1BB173
:105594000799584603F056FB049BB3F90C30049A60
:1055A400526ED00702D49A0540F183845B0600F161
:1055B4001181059857B0BDE8F08F16460133109A53
:1055C40022603E44072B6760CDE92B367FF7D4ABCE
:1055D40004992AAA584601F06FFC0028D6D12C9EC3
:1055E4002DACFFF7CABB2B9B03F101080D9B012BCC
:1055F40006F1010604F1080940F3D4810123B8F14E
:10560400070FCDE92B862760636000F31F84129B8C
:10561400139A08F101081E44B8F1070FC9E90023E1
:10562400CDE92B8600F3208409F108090D9BDDE9FF
:105634000E015C1E0022002312F09CFD002840F0A5
:10564400CB8108F1010801372644B8F1070FCDE9F1
:105654002B86C9F80070C9F8044000F3B08109F141
:105664000809149AC9F8042008F101031644072B09
:1056740024AACDE92B36C9F80020A9DC09F10804D5
:10568400FFF77BBB04992AAA584601F015FC0028B1
:1056940082D12DAC87E6049D5846294601F090FF3F
:1056A400002841F0E782B5F90C3003F01A020A2A07
:1056B4007FF46CAA0499B1F90E20002AFFF666AAB9
:1056C4004A6ED20702D49B0540F19386049923467F
:1056D4003246584601F0AEFB0590059857B0BDE838
:1056E400F08F990567D59F047FF53BAA95047FF554
:1056F40040AA049B9B899E056CD4049B986D02F080
:105704000DF967E0049910932AAA584601F0D4FBD6
:1057140000287FF43BAF2C9E109B2DACFFF701BB00
:10572400049910932AAA584601F0C6FB00287FF476
:105734002DAF2C9E109B2DACFFF704BBBC4A2B9BBA
:105744001092102F22DDAA46DDF810904FF01008B9
:10575400154604E0103F102F04F1080415DD013351
:105764001036072BC4E90058CDE92B36F2DD2AAAFE
:105774004946584601F0A0FB00287FF407AF103FCC
:10578400102FDDE92B362DACE9DC55460133109A98
:105794003E44072BC4E90027CDE92B367FF7F6AA50
:1057A40004992AAA584601F087FB00287FF4EEAE3C
:1057B4002C9EFFF7EBBA049DA86D02F0ADF8B5F985
:1057C4000C306A6E98047FF5CCA991047FF5D1A9B9
:1057D400D7078ED54FF0FF330593EAE621990029C8
:1057E40040F34F810B9B0D9A9342A8BF1346002BA5
:1057F40099460ADD1E44C4E900732B9B2C960133A1
:10580400072B2B9301F3518008340B9BB9F1000F44
:10581400A8BFA3EB0903002B984600F316840B9B47
:105824001AF4806F3B4440F04B86219A0D998A42CA
:1058340003DB1AF0010F00F0CE84129913980E4482
:10584400C4E900012B992C96013107292B9101F30E
:10585400388008340D9907EB0108A8EB03088F1A68
:10586400B845A8BFB846B8F1000F0BDD23602B9BE9
:10587400C4F8048001334644072B2C962B9301F380
:1058840072800834B8F1000FA8BFA7EB0807002FF7
:105894007FF773AA102F2B9B41F332826549DDF801
:1058A4001090109132464FF010080E4604E0083470
:1058B400103F102F7FF781AE01331032072BC4E95C
:1058C4000068CDE92B32F2DD2AAA4946584601F098
:1058D400F3FA00287FF45AAEDDE92B322DACE7E76A
:1058E400302A00F033823023039907F8013C023850
:1058F40056AB1B1A99424FF00002B8BF1946CDE9C6
:105904000B2207920893074602911192FFF7F0B910
:10591400DDF8ACE0464810991090B8F1100F7246CB
:1059240028DDCDE91C532046414D049C102606E099
:10593400A8F11008B8F1100F00F1080017DD0132CA
:105944001031072AC0E90056CDE92B21F0DD2AAA3F
:105954002146584601F0B0FA00287FF417AEA8F1AA
:105964001008B8F1100FDDE92B212DA8E7DCDDE9E3
:105974001C53044610982060501C08EB01060728AD
:10598400CDE92B06C4F8048000F39B829DF87F20A8
:105994000834002A40F09A80002B3FF4D6A913461D
:1059A400FFF7C3B91AF0010F7FF428AE0123B8F151
:1059B400070FCDE92B86276063607FF752AE049909
:1059C4002AAA584601F078FA00287FF4DFADDDE911
:1059D4002B860DF1B40944E60D9B012B7FF741AEF4
:1059E400112B41F3F281134910913246434610279B
:1059F400DDF810800E4605E009F10809103C102C72
:105A040040F3518301331032072BC9E90067CDE914
:105A14002B32F1DD2AAA4146584601F04DFA0028FE
:105A24007FF4B4ADDDE92B320DF1B409E6E700BF34
:105A3400189602000896020004992AAA584601F012
:105A44003BFA00287FF4A2AD2C9E2DACFFF785B95C
:105A540090047FF58EA8BDE61AF0010F3FF48DA9DE
:105A6400D0E456EA080321F0800A7FF4D1AB039B0B
:105A7400002B5FD00026FFF7CFBB0A932B78FFF7EC
:105A8400C2B82B9BAE4A2260013301360122072B98
:105A94002C962B93626000F346860834002940F06C
:105AA400AD820D9A0AF0010313433FF466A9129BD9
:105AB400139A1E44C4E900232B9B2C960133072B15
:105AC4002B9300F3898404F10802A8E2984600238A
:105AD400FFF71AB95046FFF763BA1AF0100F40F0F7
:105AE40085821AF0400F40F08D831AF4007F00F095
:105AF4007D820A9A059912681170FFF710BB0A9A01
:105B04001AF0100852F8043B41F078811AF0400171
:105B140000F0DA829EB2039B8DF87F80002BFFF6A3
:105B2400AEAB2AF0800A002E7FF4A9AB039B0A9245
:105B3400002B9FD1CDE90B33089311930293079364
:105B440056AFFFF7D5B85346FFF731BB0A9A043274
:105B54000A990A920E684FEAE6789A464346002B61
:105B6400BFF632AB2D238DF87F30039B764268EB72
:105B74004808002BFFF64CAB2AF0800AFFF748BB1D
:105B84000A9B1A1D0A9B0A921B680021FFF711BA8F
:105B9400DDE90E0102460B4612F01EFB0646002804
:105BA40040F0D887B9F1610F00F0E885B9F1410FF1
:105BB40000F02E83039B013300F0A787B9F1670F30
:105BC4000F9B4AF4807800F02E87B9F1470F00F05C
:105BD4002A870790DDE90E12002AC0F21C879DED8A
:105BE4000E7B8DED187B00231093A9F14103252B27
:105BF40000F2A182DFE813F04B079F029F029F028D
:105C0400020450049F029F029F029F029F029F0270
:105C14009F029F029F029F029F029F029F029F0278
:105C24009F029F029F029F029F029F029F029F0268
:105C34009F029F029F029F024B079F029F029F02A7
:105C4400020450043F4E1AF0200100F0F0800A9B39
:105C5400073323F007031A46596852F8083B0A929F
:105C64001AF0010200F0C28053EA010200F04D81F3
:105C740030228DF8802000228DF87F20039A8DF841
:105C84008190002AC0F2FE802AF4906242F0020A57
:105C940003F00F020AF00200B25C8DF857211B09D1
:105CA40043EA01730A0953EA11110DF257170BD095
:105CB40003F00F011B09715C07F8011D43EA02732D
:105CC400120953EA0201F3D1039A56AB4FF0000CC8
:105CD400DB1B9A42CDE90BCCB8BF1A46089302925B
:105CE400CDF81CC0CDF844C000283FF401A8029BA5
:105CF400DDE92B06023302931AF0840310968646DC
:105D040006D10699029AA1EB0208B8F1000F07DC4C
:105D1400BCF1000F3FF409A84FF00208FEF7F4BFEE
:105D24000223F7E5084E8EE74AF0020A0A92064E6D
:105D340003F00F020220B25C4FF07809ADE700BF18
:105D4400F88F02000C8C0200F88B0200039956AA0B
:105D5400D21B91424FF00003B8BF1146CDE90B337B
:105D64000793089202911193FEF7C2BF04992AAADD
:105D7400584601F0A1F800287FF408AC2C9E2DAC05
:105D8400FEF7E3BF04992AAA584601F095F80028C3
:105D94007FF4FCAB2C9E2DACFFF741BB039BCDF8ED
:105DA4002880062B3A4628BF0623CDE907730397BC
:105DB400CDE90B22AC4F02931192FEF799BF082252
:105DC400002128A8FEF734FD0A9B3DAF1A68394626
:105DD40028AB584604F0AAF80346013308905BD078
:105DE400089B23EAE3730293FFF76EB88DF87F20D4
:105DF400039A002A48DB53EA01022AF4906A7FF4EA
:105E040047AF039A002A00F0F780012A33788DF80F
:105E14005731B8BF0122002302920122CDE90B338E
:105E24000793089211930DF25717FEF761BF0A9A70
:105E340052F8043B0A921AF010027FF411AF1AF0E0
:105E4400400000F062819BB2114609E704992AAA36
:105E5400584601F031F800287FF498ABDDE92B8631
:105E64000DF1B409FFF7D3BB04992AAA584601F0EF
:105E740023F800287FF48AABDDE92B860DF1B40901
:105E8400FFF7D4BB4AF0020A03F00F020AF0020043
:105E9400B25C2AF4806A00E70498B0F90C30426ED0
:105EA40043F04001D70781813FF594AC99053FF554
:105EB40091AC049CA06D01F031FDB4F90C30FFF7F6
:105EC40075BB049910932AAA584600F0F5FF0028E0
:105ED4007FF45CAB9DF87F202C9E109B002A00F081
:105EE400AC8098462DAC03462B98FEF70DBF039B60
:105EF4000893CDE90B331193079356AFFEF7F8BE21
:105F0400584601F053F9FEF722BE039B002083425A
:105F14008DF87F00C0F2A6832AF4906A71E7049991
:105F24002AAA584600F0C8FF00287FF42FAB2C9E05
:105F34002DACFFF762BA0822002128A82397FEF7A8
:105F440077FC039B002BC0F29683002602940795EE
:105F540034461D460EE03DA9584603F0E7FF431CB6
:105F6400204400F0D985A84209DC06F1040600F0BB
:105F7400DE850446239A925928AB002AEBD1089473
:105F8400079D029C089B002B00F0DA83632B40F3EF
:105F94003285591C584602F04DFF0746002800F090
:105FA400398707900822002128A8FEF741FC089EA3
:105FB40028AB009323AA33463946584603F0DCFF46
:105FC400864240F02187089A0023BB5422EAE272F9
:105FD40002929DF87F20002A40F01285CDE90B2221
:105FE4000392CDF828801192FEF782BE0A9A059991
:105FF40012681160FFF793B8039B9BE5129B139AF9
:106004001E44C4E900232B9B2C960133072B2B93AE
:1060140000F3E28104F108020029C0F2BC840D9966
:10602400176001330E44072BCDE92B3651603FF73F
:10603400CFAA02F10804FEF7A0BE002B00F0D58021
:106044002B9813462DACFEF770BEB8F1100F2B9BA6
:1060540040F375860548109022463146049C4FF063
:10606400100906460BE000BF208C020008960200CF
:106074000832A8F11008B8F1100F40F3CB820133B5
:106084001031072BC2E90069CDE92B31F0DD2AAAD2
:106094002146584600F010FF00287FF477AADDE976
:1060A4002B312DAAE5E71646984608F10108109B06
:1060B400C9F800302644B8F1070FCDE92B86C9F89A
:1060C40004407FF7CCAA7AE41AF4007840F0908078
:1060D40003998DF87F8000291E46FFF6D0A82AF088
:1060E400800A002B7FF4CBA80B460A9200297FF488
:1060F400C1AC1FE51AF4007F16BF46F3C0184FEA7F
:10610400E67876B24346FFF75CB81AF400711CBF18
:10611400DBB20146A4E51AF400711CBF0146DBB2F0
:106124000A925046FEF745BF9DF87F3002920892CE
:1061340056AFFFF781B828AB019323AB00939DEDD5
:10614400180B039A21AB0221584601F007FD0746BC
:106154001AF0010F40F01A84289BDA1B219B0D9240
:10616400D91C0B93C0F2BC8303999942C0F24383B8
:106174009A4200F335840B9B08931AF4806F03D082
:106184000B9B002B00F30885089B23EAE373C246AC
:1061940002934FF06709002311930C93109B0AF0AC
:1061A4000200002B00F07C814FF02D0C8DF87FC095
:1061B400029B013302930023039395E5039B0A9208
:1061C40011930C9308930B93029307934FF0780960
:1061D40056AF9C468BE507EB0108A8EB03088F1A22
:1061E400B845A8BFB846FFF74DBB2DACFEF7ADBD13
:1061F400DEB2039B8DF87F10002B8846BFF691AC6E
:10620400FFF73DB80A9A059912681180FEF787BF17
:1062140045F63003ADF88030039B632B4AF0020A45
:1062240000F35484DDE90E12002AC0F2288421A868
:106234009DED0E0B01F0CAFB00224FF07F5351EC91
:10624400100B11F02FFD02460B46CDE90823002266
:10625400002311F08FFF08B1012321930023954AF5
:106264001093029207933DAF039B0B95591ECDE902
:106274000C9A0394029EDDE90845B8468A4609E073
:10628400002200230AF1FF3911F074FF002840F0C6
:10629400C284CA46884B00222046294611F002FDDA
:1062A4000D46044611F0AEFF814611F091FC024602
:1062B4000B462046294611F03DFB16F80930BAF189
:1062C400FF3F4246044608F8013B0D46D8D1164626
:1062D4007A4BDDF834A00022CDE90845039C0B9DE0
:1062E400CDF80C90DDF8309011F06CFF48B9DDE981
:1062F4000801724B002211F03DFFE0B1039BD80767
:1063040019D5029B2896D97B18F8012C9142434653
:1063140009D1302003F8010C289B5A1E289213F847
:10632400012C8A42F6D0392A0BBF029A0132927AA2
:10633400D2B203F8012C219AA8EB07030D93B9F10B
:10634400610F02F1FF33219300F0F68450214FF0E6
:106354004109002B8DF89010C0F2E3842B22092B05
:106364008DF8912000F3CC820DF19202303302F8C3
:10637400013B24ABD31A14930D9B149A012B1A449A
:10638400089240F3BD83089B129A13440893089A19
:106394002AF4806343F4807A22EAE2720023CDE98E
:1063A4000B3311930292F9E63846FEF747FB9DF84A
:1063B4007F30089020EAE0720292002B3EF4CCADCC
:1063C400FEF7C8BD04992AAA584600F075FD0028B6
:1063D4003EF4F3AFFFF7E0B804992AAA584600F058
:1063E4006BFD00287FF4D2A8DDE92B3621992DAA74
:1063F40012E6886D01F092FAFFF768B9039B013346
:106404000D9302210D9E28AB019323AB00933246DA
:1064140021AB9DED180B584601F0A0FB29F0200399
:10642400462B07460293064400F00C82DDE918016E
:106434000022002311F09EFE002840F0AA83289B2E
:10644400B34280F0A4834522029230215A1C289240
:106454001970289BB342F9D3DB1B0D93219B0B933B
:10646400029B472B00F0C081029B462B00F0038265
:106474000B9B8DF89090013B002B2193C0F2378247
:106484002B22092B8DF8912000F33A8230228DF8CB
:1064940092200DF1930269E7039B0D930321B1E769
:1064A4009DF87FC0BCF1000F7FF482AE109B039374
:1064B4001AE400BF0C8C0200000030400000E03FF2
:1064C4000D9ADDF84480CDF840A0BA180392224614
:1064D4001C460C9BDDF85890DDF810A00B95002BA2
:1064E40031461197179E2EDDB8F1000F7FDD08F1BC
:1064F400FF382B98159B013031440728C2E9003638
:106504002C912B9068DC0832039B99F800001F1B28
:106514008742A8BF0746002F0BDD2B980130394472
:106524000728C2E900472C912B9066DC99F80000FB
:106534000832002FACBFC51B0546002D16DC0444F1
:106544000C9B002BD0DCB8F1000FD0DC2346119F4C
:106554000B9DDDF840A0CDF8589014460D9ABA185A
:1065640093420E4628BF1346FFF75FB9102D2B98B0
:10657400B04B23DD089410272C461D4604E0103C44
:10658400102C02F1080216DD0130AA4B1031072845
:10659400C2E90037CDE92B01F1DD2AAA514658465C
:1065A40000F08AFC00287EF4F1AF103C102CDDE9E9
:1065B4002B012DAAE8DC2B462546089C13600130EC
:1065C40029440728CDE92B01556000F3C98099F8C7
:1065D400000008320444B3E72AAA5146584600F0A2
:1065E4006BFC00287EF4D2AF2C992DAA8CE70C9B6F
:1065F400013B09F1FF390C937BE72AAA514658461F
:1066040000F05AFC00287EF4C1AF99F800002C99E0
:106614002DAA8EE714460E460133109A2260464492
:10662400072BCDE92B36C4F8048000F35D820834CF
:10663400FFF7F5B80A928A46FEF7EABD2D23B9F1B1
:10664400470F8DF87F3007963346039640F39A81BF
:106654000322794F0892CDE90B331193042302935B
:10666400FEF746BB33788DF857312AF4806A0DF271
:106674005717FFF729BB28AB00930023194623AA19
:10668400584603F079FC03460133089000F0448235
:10669400239777E4179A1599BF1A384601F0A6F89C
:1066A40099F801300BB109F10109644A16EB0803AA
:1066B40043F10003A2FB030525F0030000EB950062
:1066C4001B1AF31A4FF0CC3168F1000803FB01F1F7
:1066D40002FB0811A3FB023001445B0843EAC176C4
:1066E4004FEA510816EB080343F10003A2FB031021
:1066F40020F0030101EB90015B1AF31AA3FB0231B2
:1067040068F100005B0802FB001243EAC27303EB6A
:106714008303A6EB4303303307F8013C4FF0010C2D
:10672400013FFEF706BE04992AAA584600F0C4FBAE
:1067340000287EF42BAF21992C9E2DACFFF7AEB927
:106744009DF87F30CDF82880003B18BF01230293C9
:10675400089B0393CDE90B3311930793FEF7C8BA53
:106764002AAA5146584600F0A7FB00287EF40EAF33
:1067740099F800002C992DAA0444E1E647F6300369
:10678400ADF88030039B632B4AF0020A00F39E812C
:10679400DDE90E12002AC0F2728121A89DED0E0BD4
:1067A40001F014F9002251EC100B4FF07F5311F05B
:1067B40079FA02460B46CDE908230023002211F0A2
:1067C400D9FC0346002800F07A8201231096219315
:1067D4003DAF07961A4B029346E5219B0B93F31B9F
:1067E4000D93029B472B46D10B9B033378DB039B12
:1067F4000B9A934210DA0B9B013BA9F10209002B7F
:106804008DF890902193BFF63BAE0B9B2D22C3F1E4
:1068140001038DF8912039E60D9B0B9A934200F306
:10682400DF801AF0010F0B9B00F05082129A134480
:106834000893A2E408960200EC8B0200CDCCCCCCE9
:10684400F88B02003B78302B00F07781219B1E44AB
:10685400DDE918010022002311F08CFC0028BCD1D2
:10686400289B9E423FF6F1ADDB1B0D93219B0B93BE
:10687400029B472BB8D00B99039A0AF00103002915
:1068840043EA020340F36282002B40F0AF810B9B8A
:1068940008934FF066091AF4806F40F07F81089BDB
:1068A40023EAE373C246029375E404992AAA58467C
:1068B40000F002FB00287EF469AE2C9E2DACFEF79E
:1068C400A4BF049903932AAA584600F0F5FA0028B5
:1068D4007EF45CAE219A2C9E039B2DACFEF7BABFCE
:1068E4000B9BA9F10209013B8DF8909021930B9B1E
:1068F400C3F101032D22092B8DF891207FF7C6AD3A
:106904000DF1A706DFF84CC332461046ACFB031268
:10691400D20802EB8201A3EB4101303100F8011CE3
:1069240019466329134600F1FF32EEDC303302F8D6
:10693400013C831EB34280F005820DF1910213F8ED
:10694400011B02F8011FB342F9D103F5AC736B4488
:10695400C43B1B1A24AA9B1A14930DE500230D466D
:106964000393FEF752B904992AAA584600F0A4FAF0
:1069740000287EF40BAE219F0D9B2C9EDF1B2DACBB
:10698400FEF780BF0322AF4F089264E6039BFE1814
:10699400472302935CE7C1F10008103180F2318291
:1069A400A948109031461024064605E00832A8F1A3
:1069B4001008B8F1100F53DD01331031072BC2E971
:1069C4000064CDE92B31F1DD04992AAA584600F080
:1069D40073FA00287EF4DAADDDE92B312DAAE6E75F
:1069E4000D9B129A9A180B9B0892002B40F3078177
:1069F4004FF067094FE7002307933DAFFFF7D2BA83
:106A0400029A03930132CDE90B330292CDF8288028
:106A14001193FEF76DB902F1004319932D231891D8
:106A24001093FFF7E2B8039A002A00F03181002B9B
:106A3400C0F2AD819DED0E7B8DED187B109628ABD9
:106A4400019323AB00939DED180B21AB039A022114
:106A5400584601F083F8002307460793FFF778BBF5
:106A64000E460133109911604644072BCDE92B36AD
:106A7400C2F8048000F348810832FFF7D0BA02F16B
:106A8400004319932D23189107963DAF109321A825
:106A94009DED180B00F09AFF00224FF07F5351EC4C
:106AA400100B11F0FFF802460B46CDE90823002233
:106AB400002311F05FFB08B101232193B9F1610FA9
:106AC4003FF488AE614B0293FFF7CEBB039B58465D
:106AD400591C02F0AFF9074600283FF4DDA90790DE
:106AE4004AF48078FFF776B804992AAA584600F049
:106AF400E3F900287EF44AAD2C9E2DACFEF78FBE40
:106B04001AF0010F3FF443AC3DE4062307900393CE
:106B14004AF48078FFF75EB8049BB3F90C30002286
:106B2400079243F04003049A9381FEF72FBD039B21
:106B3400029C079D0893FFF725BADDE9180100229E
:106B4400002311F017FB002800F0D580219B0B9344
:106B54001E4444E60F9B13F000432AF0800A0B9373
:106B640000F0B7802D238DF87F30B9F1470F4FF037
:106B740000030793039340F313810322344F0892D5
:106B840069E500230322CDE90732039363E5DB1BA8
:106B94000D93219B0B936BE44FF0670916990B78C7
:106BA400FF2B00F0278100260B9A304603E00130CA
:106BB4000131FF2B08D0934206DAD21A4B78002B0E
:106BC400F5D10B780136F4E7CDE90B201691119637
:106BD4000C9A119B17991344089A01FB03230893F9
:106BE40023EAE373C2460293FFF7D8BA13460B4471
:106BF4009946129B4B4408934FF066094BE6C3F148
:106C040001031A4422EAE273C246089202934FF047
:106C14006709FFF7C0BA51460029DDE90C9A039CC5
:106C24000B9DFFF688AB4A1C42444346302003F8D0
:106C3400010B9342FBD108EB010303F10108FFF7B9
:106C44007ABB00BFE88B0200089602000C8C02009D
:106C5400F48B0200CDCCCCCCCDF8288023B3039B9D
:106C640008935A1C0292039011900C904FF07309F0
:106C7400FEF73EB8049A536ED8073EF5ABAD938940
:106C840099053EF5A7AD906D00F048FEFEF7A2BD54
:106C9400002BC0F28F809DED0E7B039B109301238C
:106CA4008DED187B0393CAE6039B08930293079B1D
:106CB40011930C9303934FF07309FEF719B8594AD3
:106CC4001093029207933DAFFFF7CEBA0893FFF7F4
:106CD40054BA9DF87F30B9F1470FCCBF524F534F90
:106CE400002B79D103220393089211930C930793F9
:106CF4000292FDF7FDBF0D9BC3F101032193A6E5AD
:106D04004B4A1092FEF75ABC04992AAA584600F03E
:106D1400D3F800287EF43AACDDE92B362DAAFFF730
:106D24007EB9C2F10103092B4FF02D028DF8912099
:106D34003FF7E6ADFFF718BB7021FFF70ABB3C4AEB
:106D4400109269E402231493FFF716BBC24633B9C9
:106D5400012302934FF066090893FFF71CBA129BB4
:106D640003F10109039B4B44089323EAE373029361
:106D74004FF06609FFF70FBA0A9A6B780D4652F87E
:106D8400041B0A9241EAE1710391FDF73CBFDDE97E
:106D94000E1202F1004319932D23189110934EE61D
:106DA4000322224F089256E4CDE90B330793119343
:106DB400FDF79EBFDDE90E1202F1004319932D2366
:106DC400109301231891039339E6194B1093FFF79D
:106DD4006CB95346FEF7BCBE0023039311930C9386
:106DE40007930323089304230293FDF781BF5046BE
:106DF400FEF7C8BE002311930C93E9E65146FEF753
:106E04002EBA0B4910912CE6049BB3F90C3043F0D5
:106E1400400388E6049B0790B3F90C3043F0400329
:106E240081E600BFF88B0200F48B0200F08B0200B5
:106E3400089602002DE9F04198468B89ADF58D6DD9
:106E440023F00203ADF80C301AAB009304934FF413
:106E54008063029305934B6E1993CB89ADF80E3082
:106E6400CB6907934B6A099316460023074616A875
:106E74000D46069300F04CFD3246434669463846BB
:106E8400FDF748FE061E6C4607DB6946384600F0EF
:106E9400BFF8002818BF4FF0FF36A3895B0603D55F
:106EA400AB8943F04003AB81A06D00F033FD304665
:106EB4000DF58D6DBDE8F081936810B514461BB9CE
:106EC40018460023636010BD00F09AF90023A36004
:106ED4000023636010BD00BFB1F90C202DE9F0411F
:106EE400804610070C4650D4496842F400630029D8
:106EF400A38165DDA66A002E44D0002112F48052DD
:106F0400D8F80050C8F8001067D1E1690123404661
:106F1400B047411C02466ED0B4F90C30A66A5B0738
:106F240005D56368D21A236B0BB1E36BD21A002325
:106F3400E1694046B047471CB4F90C304FD1D8F84A
:106F440000101D2942D8314ACA40D6073ED52269CD
:106F5400226023F40062A281D9044FF0000262602F
:106F640003D5D8F80030002B43D0216BC8F800506B
:106F740041B104F14003994202D0404601F062FE5F
:106F8400002323630020BDE8F0810E69002EF9D0B0
:106F94000D680E6092070CBF4B690023AD1B8B601C
:106FA4000BE02B463246E169676A4046B847B0F1C8
:106FB400000CA5EB0C05664406DD002DF1DCE1E7D1
:106FC400E16B002996DCDDE7B4F90C3043F04003B3
:106FD400A3814FF0FF30BDE8F081226D9FE7226965
:106FE400226023F40062A281DB044FF0000262609D
:106FF400BBD52065B9E7D8F80030002B8CD01D2B09
:1070040001D0162BE0D1C8F80050BBE701004020A6
:1070140038B50C46054608B1436B03B3B4F90C000C
:1070240088B1636EDB0701D481050FD5284621465C
:10703400FFF752FF636EDA07054602D4A3899B0566
:1070440008D5284638BD0546284638BDA06D00F051
:1070540063FCEBE7A06D00F061FC284638BD00F04E
:10706400A5F8DBE7024A0349034800F03FBA00BF32
:1070740060020020959F0100600000200C4B4168D5
:10708400994210B5044601D002F082FFA168094B71
:10709400994202D0204602F07BFFE168064B9942F8
:1070A40004D02046BDE8104002F072BF10BD00BFFE
:1070B400F815002060160020C81600202DE9F843BA
:1070C400314A324C3249DFF8DC90DFF8DC80314F52
:1070D4001160002504232946082204F15C00C4E958
:1070E40003352D4EA560C4E90055C4E90555656610
:1070F400FDF79EFB04F15800C4E90749C4E9098778
:10710400E66200F005FC2946244B6367082204F17B
:10711400C400C4E91A55C4E91E552567C4F8CC5007
:10712400C4F88050FDF784FB04F1680304F1C00047
:10713400C4F88430C4E92298C4E9247600F0E8FB5A
:10714400174BC4F8DC30294604F596700822C4E9CC
:107154003455C4E93855C4F8D850C4F83451C4F887
:10716400E850FDF765FB04F1D003C4E93D87C4F89A
:10717400F09004F59470C4F8FC60C4F8EC30BDE8F9
:10718400F84300F0C5BB00BF30170020F8150020FD
:107194006970010099750100BD75010009000100C5
:1071A40012000200357501005975010010B504463E
:1071B4000A4800F0B1FB636B23B9094B094A1B6809
:1071C400626323B1BDE81040044800F0A7BBFFF799
:1071D40075FFBDE81040014800F0A0BB3C1700203B
:1071E4003017002081700100014800F095BB00BFFA
:1071F4003C170020014800F091BB00BF3C17002061
:107204009368002B00F0AF802DE9F04FB1F90CC06A
:107214001CF0080F83B0174680460C4626D00B6935
:1072240023B31CF002093E682CD04FF0000ADFF8AB
:10723400B8B25546B9465D452B46524628BF5B4613
:107244004046002D7ED0E169676AB847002840F3C4
:107254008280D9F808301B1A82442D1AC9F80830E4
:10726400002BE8D1002003B0BDE8F08F2146404652
:1072740000F0A6F9002873D1B4F90CC03E681CF0E4
:107284000209D2D11CF0010A6FD123680097554638
:10729400002D53D01CF4007FD4F80890184600F059
:1072A400A980A945CB4600F2E3801CF4906F32D04C
:1072B40021696269A3EB010902EB420202EBD2727B
:1072C40009F1010352102B44934292BF93469B460B
:1072D4001A461CF4806F00F0EA801146404601F023
:1072E400A9FD002800F0F9804A4621690190FDF7C4
:1072F400EDFAA289019B22F4906242F08002A281FD
:1073040003EB09002361ABEB0903C4F814B0A360D9
:107314002060A946AB4651465A4600F0CFF9A26810
:107324002368A2EB0902A260009A91685B44491B9E
:1073340023609160002995D0B4F90CC0D6E900A56A
:107344000836A5E7D6E900A5083674E72146404685
:10735400FFF75EFE68B3B4F90C3043F04003A38139
:107364004FF0FF307FE7002070474D46BA4648464D
:1073740000964F465DB3002831D04A46D4E9041341
:107384002068AA4228BF2A46884204D9A16803EB90
:10739400010B5A457CDC93426DDCE169666A3A462E
:1073A4004046B047B0F1000BD5DDB9EB0B09CDD0A9
:1073B4000120DAF80830A3EB0B035F44A5EB0B05BF
:1073C400CAF80830002B3FF44DAF002DD3D1009AFA
:1073D4005568134608320092002DF8D01F682A46DB
:1073E4000A21384600F0A2FA002873D00130A0EB3D
:1073F4000709C2E722699A4222D36269AA421FD8C6
:107404006FF00043AB4228BF2B46E16993FBF2F3D4
:10741400676A02FB03F340465246B847B0F10009DD
:1074240099DD009A9368A3EB0903A5EB0905CA4407
:107434009360002B3FF416AFB4F90CC0236827E720
:10744400A94528BFA94618464A46514600F036F9D0
:10745400A2682368A2EB09024B44A2602360002ABD
:10746400DFD121464046FFF7D3FD0028D9D072E78B
:10747400A946AB464FE73946019200F01FF9019A3D
:10748400A3689B1AA36023681344236093468CE784
:1074940039465A4600F012F923685B4423602146BA
:1074A4004046FFF7B5FD00283FF47FAF53E7404661
:1074B40002F08AFB034600287FF422AF216940468C
:1074C40001F0C0FBB4F90C300C22C8F8002023F002
:1074D400800342E76A1C914650E70C22B4F90C3051
:1074E400C8F8002039E700BF00FCFF7F2DE9F8430E
:1074F4000746884616464FF00009D6E90154013D77
:1075040010D4A389012B08D9B4F90E3001332146D4
:10751400384602D0C04749EA0009013D6B1C04F11A
:107524006804EED13668002EE7D14846BDE8F883FA
:1075340010B50C46B1F90E1000F0BEF9002803DBBB
:10754400236D0344236510BDA38923F48053A381D1
:1075540010BD00BF2DE9F0410C46B1F90C101F46D7
:10756400CB05054616460BD421F48051A1813B4638
:10757400B4F90E1032462846BDE8F04100F0B2B925
:10758400B4F90E100223002200F080F9B4F90C10B3
:10759400EAE700BF10B50C46B1F90E1000F076F919
:1075A400B4F90C30421C0EBF23F4805343F48053CF
:1075B4002065A38110BD00BFB1F90E1000F054B9CD
:1075C40038B53D4B1B6805460C4613B15A6B002A6F
:1075D4005AD0B4F90C3019070BD522699AB113F0BB
:1075E400010221D19B075ABF6369A360A2600020F6
:1075F40038BDDA0658D558071CD4226943F008036D
:10760400A381002AEBD1990528D5180603F080013F
:1076140024D4D80741D49D073CD5A2600029E6D0E4
:1076240043F04003A38144E0636900225B42A2600B
:10763400A361DCE7216B51B104F14002914204D013
:10764400284601F0FFFAB4F90C30002222632269C3
:107654000021C4E9002123F02403CFE72146284672
:1076640002F0F6FCB4F90C30226913F001010FD0DA
:10767400616900204942A060A161002AB7D103F0EA
:1076840080010029B3D0CBE71846FFF78FFDA0E7B0
:10769400980700D46169A160EFE76069A260404285
:1076A400A0610029A3D0BBE7092243F040032A606C
:1076B400A3814FF0FF3038BD580000208842F0B558
:1076C40014D98B18834211D9032A00EB020166D81E
:1076D40002F1FF3C4AB16FEA0C0C0A469C4413F8D1
:1076E400011D02F8011D6345F9D1F0BD032A0FD82D
:1076F400034602F1FF3C002AF7D00CF1010C013BD8
:107704008C4411F8012B03F8012F6145F9D1F0BD28
:1077140041EA00039B073ED10F2A64D9A2F110036A
:1077240001F1100423F00F032031A446194400F1A1
:10773400100E5CF8105C4EF8105C5CF80C5C4EF8B3
:107744000C5C5CF8085C4EF8085C5CF8045C4EF871
:10775400045C0CF1100C8C450EF1100EE9D1E1180B
:1077640012F00C0F034402F00F0E03F1100338D093
:107774002EF00305043D1A1F5E198C465CF8044B79
:1077840042F8044FB242F9D10431043329442B4462
:107794000EF00302ADE702F1FF3C0346ADE741EA18
:1077A4000304A4071F4602D002F1FF3C93E7A2F1B1
:1077B400040E2EF003068E1B4FEA9E0E8C46644682
:1077C40053F8045D4CF8045DB442F8D1CEEB8E73EB
:1077D40001EB830107EB83073B1F043902F003022B
:1077E40076E7724685E703469646C1E740EA010319
:1077F4009B0710B501D1032A17D8844601F1FF3E37
:1078040007E01EF8011F03F8011B541E29B19C4612
:1078140022466346002AF4D110BD9444002CFBD0C8
:1078240003F8011B6345FBD110BD8E468446DEF888
:107834000040A4F1013323EA040313F0803F7146AE
:107844000EF1040EDAD1043A032A4CF8044BEED8B4
:107854007146D3E7014B93F8100270476C02002085
:10786400004870474404002038B5074D0022044600
:1078740008462A6002F0F1FD431C00D038BD2B6895
:10788400002BFBD0236038BD3417002038B50D46DB
:10789400084C8446114628461A4600232360654650
:1078A40002F0D2FD431C00D038BD2368002BFBD06E
:1078B4002B6038BD3417002038B50D46084C84467B
:1078C400114628461A4600232360654602F059FDF6
:1078D400431C00D038BD2368002BFBD02B6038BD7F
:1078E4003417002038B50D46084C84461146284606
:1078F4001A4600232360654602F03CFD431C00D079
:1079040038BD2368002BFBD02B6038BD3417002012
:10791400704700BF704700BF704700BF704700BF8B
:1079240000000000000000000000000001F0FF0162
:10793400102A2BDB10F0070F08D010F8013B013A96
:107944008B422DD010F0070F42B3F6D1F0B441EAC8
:10795400012141EA014122F007047FF000070023DE
:10796400F0E80256083C85EA010586EA010685FA34
:1079740047F5A3FA87F586FA47F6A5FA87F68EB98E
:10798400EED1F0BC01F0FF0102F0070232B110F8B1
